:020000042000DA
:1000000000000120910100207F03002081030020D7
:1000100083030020850300208703002000000000E8
:100020000000000000000000000000008903002024
:100030008B030020000000008D0300208F030020B0
:1000400091030020930300209503002097030020D4
:10005000711900209B0300209D03002091190020AE
:10006000A1030020A30300205505002075050020F2
:10007000A9030020AB030020AD030020AF03002044
:10008000B1030020B3030020B50300208507002042
:10009000B9030020BB030020BD030020BF030020E4
:1000A000C1030020C3030020C5030020FD1A002067
:1000B000F11B0020CB030020CD030020CF03002044
:1000C000D1030020D3030020D5030020D703002054
:1000D000D9030020DB030020DD030020DF03002024
:1000E000E1030020E3030020E5030020E7030020F4
:1000F000E9030020EB030020ED030020EF030020C4
:10010000F1030020F3030020F5030020F703002093
:10011000F9030020FB030020FD030020FF03002063
:10012000010400200304002005040020070400202F
:10013000090400200B0400200D0400200F040020FF
:1001400011040020130400201504002017040020CF
:10015000190400201B0400201D0400201F0400209F
:10016000210400202304002025040020270400206F
:10017000290400202B0400202D0400202F0400203F
:1001800031040020330400200000000000000000C3
:100190004FF0000BDFF8BE020068DFF8B612096806
:1001A00001F0030100F01C00142801D14BF0020BF8
:1001B000002901D04BF0010BBBF1000F05D0A7487F
:1001C000A749DFF8722200F09FF8A64880470BF09D
:1001D000020ABAF1000F0CD0DFF86E02DFF86E12DF
:1001E00002680B680FB44FF000024FF0FF0302608B
:1001F0000B609D489D4A9E4B022808D1DFF83E12B5
:100200000A60DFF842120A60DFF836120B6001283C
:1002100008D1DFF82E120A60DFF82A120A60DFF830
:100220001E120B609348002809D193489349944AC1
:1002300000F032F893489449944A00F02DF894481D
:100240009449954A00F028F894489549DFF8E6214A
:1002500000F05AF8BBF1000F12D092489249DFF833
:10026000DA2100F051F80BF0020ABAF1000F07D0C2
:100270000FBC02600B6000BFAFF30080AFF30080E3
:10028000DFF828020FF2030E00474FF000004FF096
:100290000001DFF81CF2FEE72DE9F841884225D085
:1002A000B2EB010200D5FEE740EA010313F00303BD
:1002B00002D000F01DF819E04FF000039046121133
:1002C000F7D09A421CBFF0C8F0C103F10103F8D186
:1002D00008F00F08B8F1000F08D004780C7000F196
:1002E000010001F10101B8F10108F6D1BDE8F88182
:1002F00008B54FF0000303780B7000F1010001F125
:100300000101013AF7D108BD884237D000F0030659
:10031000002E14D04FF00405A5EB06044FF008079B
:1003200007FB06F8914669FA08F9002C07D080F817
:10033000009069FA07F900F10100013CF5E74FF080
:1003400000060F46091A88460911914614461546BB
:10035000B14206D018BFA0E8340206F10106B1424E
:10036000F8D108F00F08B8F1000F07D002704FEA7B
:10037000322200F10100B8F10108F4E77047FEE70E
:10038000FEE7FEE7FEE7FEE7FEE7FEE7FEE7FEE745
:10039000FEE7FEE7FEE7FEE7FEE7FEE7FEE7FEE735
:1003A000FEE7FEE7FEE7FEE7FEE7FEE7FEE7FEE725
:1003B000FEE7FEE7FEE7FEE7FEE7FEE7FEE7FEE715
:1003C000FEE7FEE7FEE7FEE7FEE7FEE7FEE7FEE705
:1003D000FEE7FEE7FEE7FEE7FEE7FEE7FEE7FEE7F5
:1003E000FEE7FEE7FEE7FEE7FEE7FEE7FEE7FEE7E5
:1003F000FEE7FEE7FEE7FEE7FEE7FEE7FEE7FEE7D5
:10040000FEE7FEE7FEE7FEE7FEE7FEE7FEE7FEE7C4
:10041000FEE7FEE7FEE7FEE7FEE7FEE7FEE7FEE7B4
:10042000FEE7FEE7FEE7FEE7FEE7FEE7FEE7FEE7A4
:10043000FEE7FEE7704700000000A2A2A2A2008033
:100440000340088003401080034030800340348024
:1004500003403880034018080240000000F00020EC
:1004600000000120F11C002000000000000000003E
:10047000010000000000000000000020000000203B
:1004800090010020C0040020C00400202021002092
:100490002021002020210020502500205025002070
:1004A000202700202027002000F00020151F00201A
:1004B000ED1E002000000000000000000000000011
:1004C00010B5054C237833B9044B13B10448AFF38E
:1004D00000800123237010BD502500200000000083
:1004E000F8200020084B10B51BB108480849AFF3AD
:1004F00000800848036803B910BD074B002BFBD0F0
:10050000BDE81040184700BF00000000F8200020A0
:1005100054250020202100200000000080B483B07A
:1005200000AF78600B46FB707B6803F070427B681D
:10053000C3F313035B011344FA789200134403F1ED
:1005400000731B68DBB218460C37BD465DF8047BB0
:10055000704700BF684620F007018D4689B500AF9F
:10056000034800F017F8BD46BDE88940854670474E
:10057000F8250020684620F007018D4689B500AFB8
:10058000034800F007F8BD46BDE88940854670473E
:10059000B825002080B584B000AF78607B68774ACA
:1005A000934204D07B68764A934200D000BE7B68B9
:1005B000724A934204D07B68714A934240F0DB80D8
:1005C0007B681B681B7ADBB203F00F03FB73FB7BBA
:1005D0000C2B00F2CE8001A252F823F0110600206D
:1005E000730700202F060020890600204D060020FA
:1005F000730700206B06002073070020730700209C
:100600007307002073070020730700204D060020A9
:100610007B689B6A002B00D100BE7B689B6A002B25
:1006200004D07B689B6A78689847A4E0A3E07B6865
:100630005B6A002B00D100BE7B685B6A002B04D094
:100640007B685B6A7868984795E094E07B681B6AF2
:10065000002B00D100BE7B681B6A002B04D07B6896
:100660001B6A7868984786E085E07B68DB69002B29
:1006700000D100BE7B68DB69002B04D07B68DB699E
:100680007868984777E076E07B681B6828331846DF
:100690000021FFF743FF0346002B0CD07B68DB6A89
:1006A000002B00D100BE7B68DB6A002B03D07B6887
:1006B000DB6A786898477B681B68283318460121F5
:1006C000FFF72CFF0346002B0CD07B681B6B002B25
:1006D00000D100BE7B681B6B002B03D07B681B6BBB
:1006E000786898477B681B68283318460221FFF713
:1006F00015FF0346002B0CD07B685B6B002B00D1F1
:1007000000BE7B685B6B002B03D07B685B6B7868FB
:1007100098477B681B68283318460321FFF7FEFEC5
:100720000346002B0CD07B689B6B002B00D100BED6
:100730007B689B6B002B03D07B689B6B786898472A
:100740007B681B68283318460421FFF7E7FE034641
:10075000002B0DD07B68DB6B002B00D100BE7B68CB
:10076000DB6B002B04D07B68DB6B7868984702E07A
:1007700001E000BE00BF1037BD4680BDF825002057
:10078000B825002080B582B000AF0F4B5B68FB71CD
:100790000D4B9B68DAB2FB791340FB71FB7903F0D8
:1007A0000203BB71BB79002B01D000F0E7F8FB79A5
:1007B00003F001037B717B79002B01D000F006F878
:1007C0000837BD4680BD00BF0060014080B584B0E1
:1007D00000AF634B1B78022B3FD0052B6BD0012B56
:1007E00040F0AD805F4B1B889BB2002B30D05E4B3E
:1007F0001A685C4B1B889BB21046194600F006FA3B
:10080000F860584B1B889BB21A46FB689A420FD976
:10081000544B1B889AB2FB689BB2D31A9AB2514BC5
:100820001A80514B1A68FB6813444F4A13600EE05C
:100830004C4B00221A804D4B1B68002B03D0484BB9
:1008400002221A7003E0464B03221A7004E003E010
:1008500000BE00F0B5F97FE07EE0444B1B68002B42
:1008600024D0434B1A68414B1B681046194600F0D0
:10087000CDF9B8603D4B1B68BA689A420CD23B4B2D
:100880001A68BB68D31A394A1360394B1A68BB68B7
:100890001344374A13600DE0364A364B9B6823F009
:1008A000010393602E4B03221A7003E000BE00F098
:1008B00087F951E050E02D4B1B68002B1BD12E4BCC
:1008C0001B68002B14D02C4B1B6829489847024604
:1008D000264B1A60254B1B68002B0CD1254A254B53
:1008E0009B6823F0010393601D4B03221A7002E002
:1008F00000BE00F065F91D4B1B68002B09D11D4A95
:100900001C4B9B6823F001039360154B03221A7064
:1009100022E0174B1A68154B1B681046194600F069
:1009200075F97860114B1A687B68D31A0F4A136007
:100930000F4B1A687B6813440D4A13600CE00D4A94
:100940000C4B9B6823F001039360002000F018F922
:10095000034B00221A7000BF1037BD4680BD00BF98
:100960009125002074250020702500207C25002082
:1009700078250020006001408C25002080B584B0DF
:1009800000AF794B1B69FB81FB8923F4FF4323F004
:100990007F03BB81FB89FB72744B1B78052B00F234
:1009A000D88001A252F823F0C10900203D0B00209D
:1009B0003D0B0020190A0020670A0020110B0020BF
:1009C000BB89002B27D0FB7AF12B06D0FB7ABB72B8
:1009D000BB7A184600F04CF91DE0654B00221A80E6
:1009E000644B1B68624A128892B21344FA7A1A70F6
:1009F0005F4B1B889BB201339AB25D4B1A805D4BF3
:100A00001B685B4A128892B2134400221A70574B3B
:100A100004221A70A4E0A3E0BB89002B22D0FB7A49
:100A20007B72554B1B78DBB27A7A9A4215D1504BC8
:100A300000221A804F4B1B684D4A128892B2134411
:100A40007A7A1A704A4B1B889BB201339AB2484B90
:100A50001A80464B04221A7004E07B7A184600F094
:100A600007F97DE07CE0BB89002B06D0FB7A3B7266
:100A70003B7A184600F0FCF849E03E4B1A683C4BC4
:100A80001B889BB2013B13441B78F12B16D1394BC9
:100A90001B68374A128892B21344FA7A1A70354B9F
:100AA0001A68334B1B889BB2013B13441B781846D2
:100AB00000F0DEF82D4B00221A7028E02C4B1B882A
:100AC0009AB22E4B1B889A4210D2FB7AFB71294BAB
:100AD0001B68274A128892B21344FA791A70244B81
:100AE0001B889BB201339AB2214B1A80204B1B8882
:100AF0009AB2224B1B889A4209D11D4B1B889BB28C
:100B0000184600F03DF8194B00221A7028E027E043
:100B1000BB89002B0BD1174B1B680133FA7A1A7073
:100B2000022000F02DF8114B00221A7018E0FB7A19
:100B3000BB71BB79184600F09BF811E0BB89002B14
:100B400006D0FB7A7B717B79184600F091F807E0BC
:100B500006E0002000F014F8044B00221A7000BFD9
:100B60001037BD4680BD00BF0060014091250020C8
:100B700086250020802500206C250020842500206B
:100B800080B582B000AF0346FB800A4B1B68002B88
:100B90000DD0084B1B68084A1168FA8808461146B0
:100BA0009847044B00221A60044B00221A70083741
:100BB000BD4680BD8825002080250020902500208E
:100BC00080B582B000AF0E4B1B78DBB2002B13D088
:100BD0000C4B1B889BB21846FFF7D2FF0A4A0A4B00
:100BE0001B6843F001031360074B1B6803F001030C
:100BF0007B607B68002BF7D10837BD4680BD00BF06
:100C000090250020862500200060014080B485B03A
:100C100000AF78603960154A144B1B6823F0040359
:100C200013600023FB60114B5B6803F00103BB60A2
:100C30000DE00E497A68FB6813441B780B61FB6872
:100C40000133FB60094B5B6803F00103BB60BB68C9
:100C5000002B03D0FA683B689A42EAD3FB68184637
:100C60001437BD465DF8047B704700BF006001404B
:100C700080B582B000AF0346FB71064B1B68002BAA
:100C800004D0044B1B68FA79104698470837BD46D4
:100C900080BD00BF9425002080B483B000AF034620
:100CA000FB71084997F907305B09FA7902F01F02D6
:100CB000012000FA02F241F823200C37BD465DF80E
:100CC000047B704700E100E080B483B000AF0346CE
:100CD000FB71094997F907305B09FA7902F01F02A5
:100CE000012000FA02F2203341F823200C37BD46E0
:100CF0005DF8047B704700BF00E100E080B483B082
:100D000000AF0346FB71094997F907305B09FA798F
:100D100002F01F02012000FA02F2603341F82320A2
:100D20000C37BD465DF8047B704700BF00E100E072
:100D300080B584B000AF78600B46FB701346BB7083
:100D4000BB78FB607B68384A934204D07B68374AA3
:100D5000934200D000BE00F0E9FDB8607868002141
:100D6000742201F0FFF87B682F4A934218D17B6808
:100D700004225A747B682E4A5A617B682D4A9A6114
:100D80002D4A2D4B9B6C43F4006393640420FFF7C2
:100D9000B5FF294A284B9B6C23F40063936417E04A
:100DA0007B6807225A747B68244A5A617B68244A0C
:100DB0009A61214A204B9B6C43F480539364072033
:100DC000FFF79CFF1C4A1C4B9B6C23F480539364DD
:100DD0007B689A697B68DA61FB785A007B681A60E5
:100DE0007B689B69FA68920802F00102DA617B680D
:100DF0009B69FA68520802F001025A607B689B699D
:100E0000FA6802F001021A607B685B697A6812680E
:100E1000D2B21A737B689B6901229A61B86800F0AC
:100E200099FD1037BD4680BD38260020AC26002035
:100E300000200040000004420080034000200140E8
:100E40000000244280B586B000AFF8607A601A4690
:100E50000B46FB7213463B81FB68314A934204D038
:100E6000FB68304A934200D000BE00F05FFD78611D
:100E7000FB681B7A002B02D1FB6801221A72FB6807
:100E8000012283F87220FB7A5A00FB685A60FB68E3
:100E90000022DA62FB687A681A623A89FB685A6251
:100EA000FB6800229A62FB68012283F83C20FB6801
:100EB00097F820201A74FB6893F85C30DBB2012BA2
:100EC00004D1FB68012283F8712003E0FB689B6971
:100ED00001225A61FB6893F87030012B10D1FB6836
:100EE0009B690022DA60FB685B691B79FB74FB7C01
:100EF000DBB2FB74FB685B7C5BB21846FFF7FEFE5F
:100F0000FB685B7C5BB21846FFF7C6FE786900F0B1
:100F100021FD7B68DBB218461837BD4680BD00BF97
:100F200038260020AC26002080B586B000AFF860DF
:100F30007A601A460B46FB7213463B81FB683F4AB8
:100F4000934204D0FB683E4A934200D000BE3B89E6
:100F5000002B00D100BE7B68002B00D100BEBB8CF3
:100F6000002B00D100BE3B6A002B00D100BEBB8C21
:100F7000002B5FD03B89002B5CD000F0D7FC786160
:100F8000FB681B7A002B02D1FB6803221A72FB68F4
:100F9000032283F87220FB7A5A00FB685A60FB68D0
:100FA0000022DA62FB687A681A623A89FB685A6240
:100FB000FB6800229A62FB683A6A1A63BA8CFB6883
:100FC0005A63FB6800229A63FB68012283F83C2085
:100FD000FB6897F828201A74FB6893F85C30DBB242
:100FE000012B04D1FB68012283F8712003E0FB6828
:100FF0009B6901225A61FB6893F87030012B10D174
:10100000FB689B690022DA60FB685B691B79FB74F3
:10101000FB7CDBB2FB74FB685B7C5BB21846FFF7C2
:101020006DFEFB685B7C5BB21846FFF735FE7869A6
:1010300000F090FC1837BD4680BD00BF3826002068
:10104000AC26002080B485B000AF78607B68094A88
:10105000934204D07B68084A934200D000BE7B686C
:1010600093F83C30FB73FB7B18461437BD465DF8A4
:10107000047B704738260020AC26002080B485B061
:1010800000AF786039607B680C4A934204D07B687B
:101090000B4A934200D000BE7B683A681A647B68B2
:1010A00093F83C30FB73FB7B012BF8D0FB7B18469D
:1010B0001437BD465DF8047B704700BF382600201A
:1010C000AC26002080B483B000AF78607B6893F8D2
:1010D0006830002B03D07B689B6901229A600C3733
:1010E000BD465DF8047B704790B585B000AF786071
:1010F0000123FB737B68E74A934204D07B68E64A8E
:10110000934200D000BE7B685B691B79FB72FB7A5F
:10111000DBB2083BD02B00F2DA8301A252F823F0B5
:1011200065140020CF180020CF180020CF18002011
:10113000CF180020CF180020CF180020CF18002093
:1011400065140020CF180020CF180020CF180020F1
:10115000CF180020CF180020CF180020CF18002073
:1011600001150020CF180020CF180020CF18002034
:10117000CF180020CF180020CF180020CF18002053
:10118000E3140020CF180020CF180020CF18002033
:10119000CF180020CF180020CF180020CF18002033
:1011A00001150020CF180020CF180020CF180020F4
:1011B000CF180020CF180020CF180020CF18002013
:1011C00089150020CF180020CF180020CF1800204C
:1011D000CF180020CF180020CF180020CF180020F3
:1011E000D9140020CF180020CF180020CF180020DD
:1011F000CF180020CF180020CF180020CF180020D3
:10120000A7150020CF180020CF180020CF180020ED
:10121000CF180020CF180020CF180020CF180020B2
:10122000ED150020CF180020CF180020CF18002087
:10123000CF180020CF180020CF180020CF18002092
:101240000B160020CF180020CF180020CF18002048
:10125000CF180020CF180020CF180020CF18002072
:101260003F160020CF180020CF180020CF180020F4
:10127000CF180020CF180020CF180020CF18002052
:10128000CF160020CF180020CF180020CF18002044
:10129000CF180020CF180020CF180020CF18002032
:1012A000C7160020CF180020CF180020CF1800202C
:1012B000CF180020CF180020CF180020CF18002012
:1012C000CF160020CF180020CF180020CF18002004
:1012D000CF180020CF180020CF180020CF180020F2
:1012E000C7160020CF180020CF180020CF180020EC
:1012F000CF180020CF180020CF180020CF180020D2
:1013000005170020CF180020CF180020CF1800208C
:10131000CF180020CF180020CF180020CF180020B1
:101320009B160020CF180020CF180020CF180020D7
:10133000CF180020CF180020CF180020CF18002091
:1013400005170020CF180020CF180020CF1800204C
:10135000CF180020CF180020CF180020CF18002071
:101360009B160020CF180020CF180020CF18002097
:10137000CF180020CF180020CF180020CF18002051
:101380005B170020CF180020CF180020CF180020B6
:10139000CF180020CF180020CF180020CF18002031
:1013A0001D180020CF180020CF180020CF180020D3
:1013B000CF180020CF180020CF180020CF18002011
:1013C0001D180020CF180020CF180020CF180020B3
:1013D000CF180020CF180020CF180020CF180020F1
:1013E0001D180020CF180020CF180020CF18002093
:1013F000CF180020CF180020CF180020CF180020D1
:101400009F180020CF180020CF180020CF180020F0
:10141000CF180020CF180020CF180020CF180020B0
:101420009F180020CF180020CF180020CF180020D0
:10143000CF180020CF180020CF180020CF18002090
:10144000CF180020CF180020CF180020CF18002080
:10145000CF180020CF180020CF180020CF18002070
:10146000F51700207B689B6900225A617B685B69E5
:101470007A685268D2B21A727B689B697A68D26ABB
:10148000C3F800217B68DB6A002B07D17B68002250
:101490009A620AE038260020AC2600207B68DB6ACE
:1014A000012B02D17B6800229A637B6893F871302C
:1014B000002B03D07B68002283F871207B681A7AA6
:1014C0007B6893F872309A4205D07B6893F872205B
:1014D0007B681A721BE21AE27B689B6901225A61DF
:1014E00015E27B689B6901221A617B68022283F8FE
:1014F0003C207B6800221A727868FFF7E3FD06E261
:101500007B689A6A7B685B6A9A420CD27B685A69EC
:101510007B68196A7B689B6A5C1C786884620B44F0
:101520001B7813722FE07B681B7A032B07D17B6833
:101530000122DA627B689B6901225A6123E07B68A1
:1015400000221A727B681B7C03F00103BB737B686B
:10155000BA7B83F87020BB7B002B07D17B689B692B
:1015600001221A617868FFF7ADFD07E07B685B7CBC
:101570005BB21846FFF7A8FB0023FB737B680022D1
:1015800083F83C20C3E1C2E17B689B6901221A61B8
:101590007B68022283F83C207B6800221A727868FC
:1015A000FFF790FDB3E17B685B6B012B04D97B688F
:1015B0009B6901229A6018E07B685B6B012B04D168
:1015C0007B689B6900229A600FE07B689B6901221F
:1015D0009A607B689B6901221A617B68002283F80C
:1015E0003C207B6800221A7291E190E17B689B6944
:1015F00001221A617B68022283F83C207B6800226A
:101600001A727868FFF75EFD81E17B681A6B7B6870
:101610009B6B581C7968886313447A685269127A04
:10162000D2B21A707B689A6B7B685B6B013B9A4203
:1016300004D37B689B6900229A6068E167E17B685C
:101640001A6B7B689B6B13447A685269127AD2B228
:101650001A707B681B7C03F00103BB737B68BA7B49
:1016600083F87020BB7B002B07D17B689B6901222C
:101670001A617868FFF726FD07E07B685B7C5BB248
:101680001846FFF721FB0023FB737B6800221A72C8
:101690007B68002283F83C2039E17B689B6901224A
:1016A0009A607B6800221A727B68002283F85C20B3
:1016B0007B6893F87130002B04D07B689B69012212
:1016C0005A6124E123E17B68012283F871207B6861
:1016D00004221A727B6800229A657B680022DA6015
:1016E0007B689B695B69002B07D07B689B69002244
:1016F0005A617B68012283F871207B68012283F89C
:101700005C2004E17B681B6D002B1AD07B689A6D0E
:101710007B685B6D9A4214D27B685B691B7A7B7332
:101720007B681A6D7B689B6D581C796888651344CB
:101730007A7B1A707B68DB681A027B7B1A447B68B1
:10174000DA607B689A6D7B685B6D9A4204D37B6834
:101750009B6900229A60DAE0D9E07B681B7A042B4F
:1017600031D17B689A6D7B681B6E9A4203D17B688E
:10177000DA687B68DA647B685B6E002B1ED07B685E
:101780005B6E7A68116D7A68926D92B2786898474C
:1017900003463B733B7B002B07D17868FFF792FC35
:1017A0007B689B6901229A6013E07B689B69002239
:1017B0009A607B68002283F868200AE07B689B6956
:1017C00001229A6005E07B680022DA647868FFF7FE
:1017D00079FC7B68002283F85C207B6893F8713089
:1017E000002B03D07B689B6901225A617B68002231
:1017F0001A728CE07B6800221A727B680022DA641D
:101800007B6893F85C30DBB2012B03D17B6802224A
:1018100083F85C207868FFF755FC78E0FB7ADBB250
:10182000A82B16D17B6805221A727B680022DA6029
:101830007B68012283F85C207B689B695B69002BD5
:1018400007D07B689B6900225A617B68012283F87C
:1018500071207B68DA6C7B689B6C9A4204D37B684E
:101860005B69FF221A720BE07B685A697B68596CCE
:101870007B68DB6C5C1C7868C4640B441B78137257
:101880007B68DA6C7B689B6C9A4207D37B689B69A8
:1018900000229A607B680022DA6438E037E07B68D7
:1018A0000022DA647B689B6901229A607B680022CF
:1018B00083F85C207B6893F87130002B03D07B6841
:1018C0009B6901225A617B6800221A721FE07B68C3
:1018D0009B6900225A617B6800221A727B68002291
:1018E000DA647B6893F83C30DBB2012B03D17B6870
:1018F000022283F83C207B6893F85C30DBB2012B3A
:1019000004D17B68022283F85C20FFE700BFFB7BE9
:10191000002B03D07B689B690022DA607B685B69DF
:101920001B79FB721437BD4690BD00BF80B485B0F3
:1019300000AFEFF31083BB60BB68FB6001237B60EB
:101940007B6883F31088FB6818461437BD465DF842
:10195000047B704780B485B000AF78607B68FB6023
:10196000FB6883F310881437BD465DF8047B70472D
:10197000684620F007018D4689B500AF0348FFF7A0
:10198000B3FBBD46BDE88940854670473826002038
:10199000684620F007018D4689B500AF0348FFF780
:1019A000A3FBBD46BDE8894085467047AC260020B4
:1019B00090B484B000AFF860B9607A60FB704B48B7
:1019C0004B4B1A68F97813469B001344DB01034420
:1019D00003F5E07359604749454B1A6813469B006D
:1019E00013449B000B44FA685A604249404B1A6802
:1019F00013469B0013449B000B44BA689A603D4811
:101A00003B4B19683B4C3A4B1A6813469B001344F6
:101A10009B00234408335B681A0C12040B469B009E
:101A20000B449B00034408335A607B68B3F5803F46
:101A30000FD97B68A3F580332F4A1361BB6803F588
:101A400080332D4AD360FB6803F580332A4A9360C4
:101A500019E02848264B1A68264C254B19680B4676
:101A60009B000B449B00234408335B68796889B270
:101A7000194313469B0013449B00034408335960E9
:101A80001D4B00221A611B48194B1A68194C184B40
:101A900019680B469B000B449B00234408335B688A
:101AA00043F4E00113469B0013449B0003440833B6
:101AB00059600E490E4B1A6813469B001344DB0114
:101AC0000B4403F5E07301221A600849084B1A68B9
:101AD00013469B001344DB010B4403F5E47300221F
:101AE0005A601037BD4690BC704700BF00002842C6
:101AF000B02500200040014098250020684620F0D5
:101B000007018D4691B500AF344A354B1B6803F58C
:101B10002873012142F823103248314B1A68314CA6
:101B20002F4B19680B469B000B449B002344083342
:101B30005B6823F4E00113469B0013449B000344BD
:101B400008335960264B1B680133254A1360244B28
:101B50001B68042B02D1224B00221A60224B1B6906
:101B6000002B17D0214B1B68042B03D11F4B0022E5
:101B70001A6004E01D4B1B6801331C4A13601A4BAA
:101B80009868194BD968184B1A69174B1B7DFFF7DA
:101B90000FFF1EE01349124B1A6813469B001344B3
:101BA0009B000B4408335B6803F4E003002B10D167
:101BB0000B4B00221A600D4B00221A600A4B0122C7
:101BC0001A70094B5B68002B03D0074B5B68012040
:101BD0009847BD46BDE891408546704700002842C1
:101BE000B42500200040014098250020B0250020A9
:101BF000684620F007018D4681B583B000AF384BB1
:101C00001B683B603B6803F470633B603B68002BE0
:101C10002FD03449344B1A6813469B001344DB0120
:101C20000B4403F502731B68002B0AD02F4B0222D2
:101C30001A702E4B5B68002B03D02C4B5B68022084
:101C400098472849284B1A6813469B001344DB0128
:101C50000B4403F502735B68002B0AD0234B03226D
:101C60001A70224B5B68002B03D0204B5B6803206B
:101C700098471B4B1B683B603B6803F470433B6019
:101C80003B68002B0AD0194B04221A70174B5B6873
:101C9000002B03D0154B5B680420984700237B6022
:101CA00014E010497A6813469B001344DB010B448F
:101CB00003F5E47301221A600A4A7B6803F528736E
:101CC000012142F823107B6801337B607B68032B82
:101CD000E7D90C37BD46BDE881408546704700BF57
:101CE0000040014000002842B42500209825002033
:101CF00080B500AF00F030F8044A044B5B6943F450
:101D000000735361FEF796FB80BD00BF00ED00E05D
:101D100080B483B000AF0E4BD3F84C313B603B68CE
:101D20004FF60202934203D00A4A934203D005E0E1
:101D300001237B6005E002237B6002E000237B60DF
:101D400000BF7B6818460C37BD465DF8047B7047C2
:101D50000080034002F8010080B582B000AFFFF7B9
:101D6000D7FF78607B68012B00D002E000F004F818
:101D700000BF0837BD4680BD80B400AF094A094B9B
:101D8000D3F8983043F48073C2F89830054A054B75
:101D9000D3F8983023F08063C2F89830BD465DF8E0
:101DA000047B70470080034080B500AF02484021AB
:101DB0000022FEF7BDFF80BDAC26002080B588B0B4
:101DC00004AF03463960FB7100233B7300237B7330
:101DD000FA1D07F10C0300930223019300230293E1
:101DE000104840210123FFF79FF80E480021FFF71C
:101DF00045F90346FB730B48FFF724F90346FB73D1
:101E0000FB7B002B08D13B7B1B027A7B13431A46DA
:101E10003B681A60012300E0002318461037BD46D6
:101E200080BD00BFAC26002080B586B002AF03465F
:101E30000A46FB711346BB80FB793B72BB881B0AC9
:101E40009BB2DBB27B72BB88DBB2BB7207F10802CC
:101E5000002300930D4840210323FEF7F3FF0346C0
:101E6000FB730A480021FFF709F90346BB730748D3
:101E7000FFF7E8F80346FB73FB7B002B0CBF012345
:101E80000023DBB218461037BD4680BDAC260020CB
:101E900080B586B000AF00233B600023FB7507F1DF
:101EA000080300201946FFF789FF07F110030120FE
:101EB0001946FFF783FF3B1D05201946FFF77EFFFC
:101EC00005203E21FFF7B0FF0346FB753B1D0520B3
:101ED0001946FFF773FF3B4604201946FFF76EFFD4
:101EE0003B6818461837BD4680BD00BF80B582B03C
:101EF00000AF00237B60FFF757FFFFF7C9FF786053
:101F00007B684A2B01D1012300E0002318460837E3
:101F1000BD4680BD70B50F4E0F4D761BB61018BF75
:101F2000002405D0013455F8043B9847A642F9D166
:101F30000A4E0B4D00F0E0F8761BB61018BF0024D7
:101F400006D0013455F8043B9847A642F9D170BD3C
:101F500070BD00BF1021002010210020182100209A
:101F60001021002070B4840746D0541E002A41D0AE
:101F7000CDB2034602E0621EE4B3144603F8015BEF
:101F80009A07F8D1032C2ED9CDB245EA05250F2C9E
:101F900045EA054519D9264603F11002103E0F2ED9
:101FA00042F8105C42F80C5C42F8085C42F8045CB1
:101FB00002F11002F2D8A4F1100222F00F0204F094
:101FC0000F041032032C13440DD91E462246043A46
:101FD000032A46F8045BFAD8221F22F003020432D7
:101FE000134404F003042CB1C9B21C4403F8011BD0
:101FF000A342FBD170BC704714460346C2E700BF42
:10200000024B13B1024800F005B870470000000011
:1020100021200020014600200246034600F016B8A9
:1020200038B5084B084DED1AAC1018BFED1805D0A7
:10203000013C55F8043D9847002CF9D1BDE83840E3
:1020400000F060B8182100201C2100202DE9F04785
:10205000254C064625688846D5F84841924699465B
:10206000C4B360681F2817DC411C76B104EB800301
:10207000C3F888A0D4F88851012282401543022E6B
:10208000C4F88851C3F808911ED0831C61600020F9
:1020900044F82380BDE8F087144B03B34FF4C870B5
:1020A000AFF300800446D0B1D5F84831002784E86A
:1020B00088003846C5F848410121C4F88871C4F841
:1020C0008C71002EE1D0D1E7D4F88C311A43C4F8DA
:1020D0008C21DAE705F5A674C5F84841C1E74FF051
:1020E000FF30BDE8F08700BFF420002000000000B2
:1020F0004300000028210020F8B500BFF8BC08BC50
:102100009E467047F8B500BFF8BC08BC9E467047B5
:1021100001200020E5040020C10400200000000090
:102120000000000000000000000000001424002057
:102130007C240020E42400200000000000000000B7
:10214000000000000000000000000000000000008F
:10215000000000000000000000000000F02000204F
:10216000000000000000000000000000000000006F
:10217000000000000000000000000000000000005F
:10218000000000000000000000000000000000004F
:10219000000000000000000000000000000000003F
:1021A000000000000000000000000000000000002F
:1021B000000000000000000000000000000000001F
:1021C000000000000000000000000000000000000F
:1021D00001000000000000000E33CDAB34126DE6AC
:1021E000ECDE05000B000000000000000000000015
:1021F00000000000000000000000000000000000DF
:1022000000000000000000000000000000000000CE
:1022100000000000000000000000000000000000BE
:1022200000000000000000000000000000000000AE
:040000052000019145
:00000001FF
