:020000042000DA
:1000000000000120910100207F03002081030020D7
:1000100083030020850300208703002000000000E8
:100020000000000000000000000000008903002024
:100030008B030020000000008D0300208F030020B0
:100040009103002093030020C1170020E117002036
:10005000990300209B0300209D0300209F030020A4
:10006000A1030020A30300201D0700203D0700205E
:10007000A9030020AB030020AD030020AF03002044
:10008000B1030020B3030020B5030020550D00206C
:10009000B9030020BB030020BD030020BF030020E4
:1000A000C1030020C3030020C50300204D19002018
:1000B000411A0020CB030020CD030020CF030020F5
:1000C000D1030020D3030020D5030020D703002054
:1000D000D9030020DB030020DD030020DF03002024
:1000E000E1030020E3030020E5030020E7030020F4
:1000F000E9030020EB030020ED030020EF030020C4
:10010000F1030020F3030020F5030020F703002093
:10011000F9030020FB030020FD030020FF03002063
:10012000010400200304002005040020070400202F
:10013000090400200B0400200D0400200F040020FF
:1001400011040020130400201504002017040020CF
:10015000190400201B0400201D0400201F0400209F
:10016000210400202304002025040020270400206F
:10017000290400202B0400202D0400202F0400203F
:1001800031040020330400200000000000000000C3
:100190004FF0000BDFF8BE020068DFF8B612096806
:1001A00001F0030100F01C00142801D14BF0020BF8
:1001B000002901D04BF0010BBBF1000F05D0A7487F
:1001C000A749DFF8722200F09FF8A64880470BF09D
:1001D000020ABAF1000F0CD0DFF86E02DFF86E12DF
:1001E00002680B680FB44FF000024FF0FF0302608B
:1001F0000B609D489D4A9E4B022808D1DFF83E12B5
:100200000A60DFF842120A60DFF836120B6001283C
:1002100008D1DFF82E120A60DFF82A120A60DFF830
:100220001E120B609348002809D193489349944AC1
:1002300000F032F893489449944A00F02DF894481D
:100240009449954A00F028F894489549DFF8E6214A
:1002500000F05AF8BBF1000F12D092489249DFF833
:10026000DA2100F051F80BF0020ABAF1000F07D0C2
:100270000FBC02600B6000BFAFF30080AFF30080E3
:10028000DFF828020FF2030E00474FF000004FF096
:100290000001DFF81CF2FEE72DE9F841884225D085
:1002A000B2EB010200D5FEE740EA010313F00303BD
:1002B00002D000F01DF819E04FF000039046121133
:1002C000F7D09A421CBFF0C8F0C103F10103F8D186
:1002D00008F00F08B8F1000F08D004780C7000F196
:1002E000010001F10101B8F10108F6D1BDE8F88182
:1002F00008B54FF0000303780B7000F1010001F125
:100300000101013AF7D108BD884237D000F0030659
:10031000002E14D04FF00405A5EB06044FF008079B
:1003200007FB06F8914669FA08F9002C07D080F817
:10033000009069FA07F900F10100013CF5E74FF080
:1003400000060F46091A88460911914614461546BB
:10035000B14206D018BFA0E8340206F10106B1424E
:10036000F8D108F00F08B8F1000F07D002704FEA7B
:10037000322200F10100B8F10108F4E77047FEE70E
:10038000FEE7FEE7FEE7FEE7FEE7FEE7FEE7FEE745
:10039000FEE7FEE7FEE7FEE7FEE7FEE7FEE7FEE735
:1003A000FEE7FEE7FEE7FEE7FEE7FEE7FEE7FEE725
:1003B000FEE7FEE7FEE7FEE7FEE7FEE7FEE7FEE715
:1003C000FEE7FEE7FEE7FEE7FEE7FEE7FEE7FEE705
:1003D000FEE7FEE7FEE7FEE7FEE7FEE7FEE7FEE7F5
:1003E000FEE7FEE7FEE7FEE7FEE7FEE7FEE7FEE7E5
:1003F000FEE7FEE7FEE7FEE7FEE7FEE7FEE7FEE7D5
:10040000FEE7FEE7FEE7FEE7FEE7FEE7FEE7FEE7C4
:10041000FEE7FEE7FEE7FEE7FEE7FEE7FEE7FEE7B4
:10042000FEE7FEE7FEE7FEE7FEE7FEE7FEE7FEE7A4
:10043000FEE7FEE7704700000000A2A2A2A2008033
:100440000340088003401080034030800340348024
:1004500003403880034018080240000000F00020EC
:1004600000000120411B00200000000000000000EF
:10047000010000000000000000000020000000203B
:1004800090010020C0040020C0040020801F002034
:10049000801F0020801F0020D0230020D0230020B8
:1004A000C0250020C025002000F00020B91D00203C
:1004B000851D00200000000000000000000000007A
:1004C00010B5054C237833B9044B13B10448AFF38E
:1004D00000800123237010BDD02300200000000005
:1004E000541F0020084B10B51BB108480849AFF352
:1004F00000800848036803B910BD074B002BFBD0F0
:10050000BDE81040184700BF00000000541F002045
:10051000D4230020801F00200000000080B483B09E
:1005200000AF0346FB71094997F907305B09FA7977
:1005300002F01F02012000FA02F2603341F823208A
:100540000C37BD465DF8047B704700BF00E100E05A
:1005500080B483B000AF78600B46FB707B6803F01B
:1005600070427B68C3F313035B011344FA78920073
:10057000134403F100731A46012313600C37BD4680
:100580005DF8047B704700BF80B483B000AF786033
:100590000B46FB707B6803F070427B68C3F3130368
:1005A0005B011344FA789200134403F100731A4676
:1005B000002313600C37BD465DF8047B704700BF15
:1005C00080B483B000AF78600B46FB707B6803F0AB
:1005D00070427B68C3F313035B011344FA78920003
:1005E000134403F100731B68DBB218460C37BD4699
:1005F0005DF8047B704700BF80B584B000AFF86041
:10060000B9601346FB71FB68144A934204D0FB683F
:10061000134A934200D000BEFB79F868B9681A46C5
:1006200000F040F9FB681B68303318460321FFF7E0
:10063000ABFFFB681B68343318460221FFF7A4FFA9
:10064000FB681B68383318460021FFF79DFFFB68E5
:10065000044A5A621037BD4680BD00BF782400208E
:10066000382400206D0C002080B487B000AF786083
:10067000396000237B617B68264A934204D07B6803
:10068000254A934200D000BE3B68002B00D100BE3B
:100690007B68204A934203D07B681F4A934233D140
:1006A0003B68002B30D03A687B6913441B78FB739E
:1006B00027E07B681B681B7DBB737B685A7BBB7B19
:1006C0001343DAB27B685A73BB7B03F02003002B21
:1006D000EFD000233B610EE07B681B68FA7B1A7049
:1006E0003B6901333B617B6901337B613A687B691C
:1006F00013441B78FB73FB7B002B02D03B690F2B51
:10070000EAD9FB7B002BD4D11C37BD465DF8047BB6
:10071000704700BF7824002038240020684620F06D
:1007200007018D4689B500AF034800F0A7F9BD4623
:10073000BDE889408546704778240020684620F04F
:1007400007018D4689B500AF034800F097F9BD4613
:10075000BDE88940854670473824002080B588B0C0
:1007600000AF786039607B684A4A934204D07B6866
:10077000494A934200D000BE7B68464A934204D067
:100780007B68454A934240F082807B683A689A6071
:1007900001F0E6F97B683F4A934203D13F4B1B6867
:1007A000FB6102E03E4B1B68FB61FB69DA003B68C2
:1007B000B2FBF3F3BB61BB695B087B617B699B099F
:1007C0003B613B699B017A69D31AFB603B69DB01A2
:1007D000BA69D21AFB685B00D31AFA681344FB604B
:1007E0003B69B3F5803F00D300BE3B69B3F5803F62
:1007F0004DD23B69012B2AD97B681B680C33184604
:100800000721FFF7A5FE7B681B683A69120AD2B27E
:100810001A717B681B683A69D2B21A707B681B68D0
:100820000C3318460721FFF7AFFE7B681B68303397
:1008300018460721FFF78CFEFB68FF2B00D900BE8E
:100840007B681B68FA68D2B283F83C201FE07B68A3
:100850001B680C3318460721FFF77AFE7B681B687C
:100860003A69120AD2B21A717B681B683A69D2B22D
:100870001A707B681B680C3318460721FFF784FE4B
:100880007B681B68303318460721FFF77DFE203751
:10089000BD4680BD7824002038240020881F002019
:1008A0008C1F002080B584B000AFF860B96013469B
:1008B000FB71FB686D4A934204D0FB686C4A93421B
:1008C00000D000BEFB68694A934216D1FB684FF026
:1008D00080421A60FB680A221A71664A654B9B6C5B
:1008E00043F0800393640A20FFF718FE614A614BCE
:1008F0009B6C23F08003936414E0FB685E4A1A60EB
:10090000FB680B221A715B4A5A4B9B6C43F4807351
:1009100093640B20FFF702FE564A564B9B6C23F460
:1009200080739364FB681B6800221A71FB681B6864
:1009300000221A72FB681B68083318460121FFF772
:1009400007FEFB681B68083318460221FFF700FE0C
:10095000FB681B68083318460021FFF7F9FDFB68A8
:100960001B68103318460421FFF70EFEFB681B6856
:10097000103318460521FFF707FEFB681B68343368
:1009800018460121FFF700FEFB681B683433184648
:100990000021FFF7F9FDFB681B6838331846012179
:1009A000FFF7F2FDFB681B68303318460521FFF79F
:1009B000EBFDFB681B68303318460621FFF7E4FDAA
:1009C000FB681B68303318460721FFF7DDFDFB6825
:1009D0001B68383318460321FFF7D6FDFB681B68F8
:1009E000002283F84420FB681B68002283F848201B
:1009F000FB681B68002283F84C20F868B968FFF791
:100A0000ADFEFB681B68FA791A73FB68BA689A60D6
:100A1000FB68FA791A73FB6800225A61FB680022AE
:100A20001A61FB6800229A61FB6800221A62FB6867
:100A300000225A62FB680022DA61FB6800229A6297
:100A4000FB680022DA62FB6800221A63FB6800225E
:100A50005A63FB6800229A63FB680022DA63FB6832
:100A600000225A731037BD4680BD00BF7824002095
:100A700038240020008003400000014080B584B08D
:100A800000AF78607B68774A934204D07B68764AEF
:100A9000934200D000BE7B68724A934204D07B68C8
:100AA000714A934240F0DB807B681B681B7ADBB2A3
:100AB00003F00F03FB73FB7B0C2B00F2CE8001A233
:100AC00052F823F0F90A00205B0C0020170B0020DD
:100AD000710B0020350B00205B0C0020530B002015
:100AE0005B0C00205B0C00205B0C00205B0C0020EA
:100AF0005B0C0020350B00207B689B6A002B00D12B
:100B000000BE7B689B6A002B04D07B689B6A786878
:100B10009847A4E0A3E07B685B6A002B00D100BE8D
:100B20007B685B6A002B04D07B685B6A78689847B7
:100B300095E094E07B681B6A002B00D100BE7B68C7
:100B40001B6A002B04D07B681B6A7868984786E094
:100B500085E07B68DB69002B00D100BE7B68DB6928
:100B6000002B04D07B68DB697868984777E076E0F3
:100B70007B681B68283318460021FFF721FD0346D8
:100B8000002B0CD07B68DB6A002B00D100BE7B6899
:100B9000DB6A002B03D07B68DB6A786898477B6848
:100BA0001B68283318460121FFF70AFD0346002B76
:100BB0000CD07B681B6B002B00D100BE7B681B6BCD
:100BC000002B03D07B681B6B786898477B681B6899
:100BD000283318460221FFF7F3FC0346002B0CD004
:100BE0007B685B6B002B00D100BE7B685B6B002BCE
:100BF00003D07B685B6B786898477B681B682833F9
:100C000018460321FFF7DCFC0346002B0CD07B6861
:100C10009B6B002B00D100BE7B689B6B002B03D02D
:100C20007B689B6B786898477B681B6828331846FD
:100C30000421FFF7C5FC0346002B0DD07B68DB6B5E
:100C4000002B00D100BE7B68DB6B002B04D07B68DF
:100C5000DB6B7868984702E001E000BE00BF103708
:100C6000BD4680BD782400203824002080B586B0A1
:100C700000AF78607B68354A934204D07B68344A81
:100C8000934200D000BE7B681B69002B00D100BEE0
:100C90007B685B69002B00D100BE7B682B4A9342C6
:100CA00003D07B682A4A93424CD17B681B69002B96
:100CB00048D07B685B69002B44D07B681B681B7D38
:100CC000FB737B685A7BFB7B1343DAB27B685A73F6
:100CD000FB7B03F02003002B24D010233B617B68B7
:100CE0005A697B689B69D31ABB60BB680F2B01D81C
:100CF000BB683B6100237B6110E07B681B687A68FE
:100D000011697A6892690A4412781A707B689B6943
:100D10005A1C7B689A617B6901337B617A693B6904
:100D20009A42EAD37B689A697B685B699A4209D1E7
:100D30007B6800225A617B681B68043318460121D6
:100D4000FFF722FC1837BD4680BD00BF7824002085
:100D50003824002080B582B000AF0F4B5B68FB7178
:100D60000D4B9B68DAB2FB791340FB71FB7903F002
:100D70000203BB71BB79002B01D000F0E7F8FB79CF
:100D800003F001037B717B79002B01D000F006F8A2
:100D90000837BD4680BD00BF0060014080B584B00B
:100DA00000AF634B1B78022B3FD0052B6BD0012B80
:100DB00040F0AD805F4B1B889BB2002B30D05E4B68
:100DC0001A685C4B1B889BB21046194600F006FA65
:100DD000F860584B1B889BB21A46FB689A420FD9A1
:100DE000544B1B889AB2FB689BB2D31A9AB2514BF0
:100DF0001A80514B1A68FB6813444F4A13600EE087
:100E00004C4B00221A804D4B1B68002B03D0484BE3
:100E100002221A7003E0464B03221A7004E003E03A
:100E200000BE00F0B5F97FE07EE0444B1B68002B6C
:100E300024D0434B1A68414B1B681046194600F0FA
:100E4000CDF9B8603D4B1B68BA689A420CD23B4B57
:100E50001A68BB68D31A394A1360394B1A68BB68E1
:100E60001344374A13600DE0364A364B9B6823F033
:100E7000010393602E4B03221A7003E000BE00F0C2
:100E800087F951E050E02D4B1B68002B1BD12E4BF6
:100E90001B68002B14D02C4B1B682948984702462E
:100EA000264B1A60254B1B68002B0CD1254A254B7D
:100EB0009B6823F0010393601D4B03221A7002E02C
:100EC00000BE00F065F91D4B1B68002B09D11D4ABF
:100ED0001C4B9B6823F001039360154B03221A708F
:100EE00022E0174B1A68154B1B681046194600F094
:100EF00075F97860114B1A687B68D31A0F4A136032
:100F00000F4B1A687B6813440D4A13600CE00D4ABE
:100F10000C4B9B6823F001039360002000F018F94C
:100F2000034B00221A7000BF1037BD4680BD00BFC2
:100F300011240020F4230020F0230020FC230020B3
:100F4000F8230020006001400C24002080B584B00C
:100F500000AF794B1B69FB81FB8923F4FF4323F02E
:100F60007F03BB81FB89FB72744B1B78052B00F25E
:100F7000D88001A252F823F0910F00200D1100201B
:100F80000D110020E90F002037100020E110002093
:100F9000BB89002B27D0FB7AF12B06D0FB7ABB72E2
:100FA000BB7A184600F04CF91DE0654B00221A8010
:100FB000644B1B68624A128892B21344FA7A1A7020
:100FC0005F4B1B889BB201339AB25D4B1A805D4B1D
:100FD0001B685B4A128892B2134400221A70574B66
:100FE00004221A70A4E0A3E0BB89002B22D0FB7A74
:100FF0007B72554B1B78DBB27A7A9A4215D1504BF3
:1010000000221A804F4B1B684D4A128892B213443B
:101010007A7A1A704A4B1B889BB201339AB2484BBA
:101020001A80464B04221A7004E07B7A184600F0BE
:1010300007F97DE07CE0BB89002B06D0FB7A3B7290
:101040003B7A184600F0FCF849E03E4B1A683C4BEE
:101050001B889BB2013B13441B78F12B16D1394BF3
:101060001B68374A128892B21344FA7A1A70354BC9
:101070001A68334B1B889BB2013B13441B781846FC
:1010800000F0DEF82D4B00221A7028E02C4B1B8854
:101090009AB22E4B1B889A4210D2FB7AFB71294BD5
:1010A0001B68274A128892B21344FA791A70244BAB
:1010B0001B889BB201339AB2214B1A80204B1B88AC
:1010C0009AB2224B1B889A4209D11D4B1B889BB2B6
:1010D000184600F03DF8194B00221A7028E027E06E
:1010E000BB89002B0BD1174B1B680133FA7A1A709E
:1010F000022000F02DF8114B00221A7018E0FB7A44
:10110000BB71BB79184600F09BF811E0BB89002B3E
:1011100006D0FB7A7B717B79184600F091F807E0E6
:1011200006E0002000F014F8044B00221A7000BF03
:101130001037BD4680BD00BF006001401124002073
:101140000624002000240020EC230020042400209A
:1011500080B582B000AF0346FB800A4B1B68002BB2
:101160000DD0084B1B68084A1168FA8808461146DA
:101170009847044B00221A60044B00221A7008376B
:10118000BD4680BD0824002000240020102400203B
:1011900080B582B000AF0E4B1B78DBB2002B13D0B2
:1011A0000C4B1B889BB21846FFF7D2FF0A4A0A4B2A
:1011B0001B6843F001031360074B1B6803F0010336
:1011C0007B607B68002BF7D10837BD4680BD00BF30
:1011D00010240020062400200060014080B485B067
:1011E00000AF78603960154A144B1B6823F0040384
:1011F00013600023FB60114B5B6803F00103BB60CD
:101200000DE00E497A68FB6813441B780B61FB689C
:101210000133FB60094B5B6803F00103BB60BB68F3
:10122000002B03D0FA683B689A42EAD3FB68184661
:101230001437BD465DF8047B704700BF0060014075
:1012400080B582B000AF0346FB71064B1B68002BD4
:1012500004D0044B1B68FA79104698470837BD46FE
:1012600080BD00BF1424002080B483B000AF0346CB
:10127000FB71094997F907305B09FA7902F01F02FF
:10128000012000FA02F2603341F823200C37BD46FA
:101290005DF8047B704700BF00E100E080B58AB0D4
:1012A00000AF78607B681B681B687B627B681B688B
:1012B0009B693B627B681B685B68FB617B681B68A2
:1012C0009B6ABB617B681B681B6B7B617B681B68CF
:1012D0005B6B3B617B681B68DB69FB607B68344A46
:1012E00093421DD17B68334A1A607B6802221A71CF
:1012F000314A314B9B6C43F4007393640220FFF737
:10130000B3FF2D4A2C4B9B6C23F4007393647B68D2
:101310001B687A681268126822F000421A601CE0AA
:101320007B68264A1A607B6803221A71224A224B84
:101330009B6C43F4806393640320FFF795FF1E4A80
:101340001D4B9B6C23F4806393647B681B687A68F5
:101350001268126822F000421A607B6A23F00103CF
:101360007B627B681B687A6A1A607B681B683A6AD2
:101370009A617B681B68FA695A607B681B687A68A7
:101380001268126842F001021A607B681B68BA6931
:101390009A627B681B687A691A637B681B683A6982
:1013A0005A637B681B68FA68DA612837BD4680BDDE
:1013B0003C25002000100040008003400010014048
:1013C00080B485B000AF78600023FB600DE07B68DF
:1013D0001B687A6891687A6812690A4412785A61BF
:1013E0007B681B695A1C7B681A617B681B689B6859
:1013F00003F48073002B05D17B681A697B68DB6876
:101400009A42E4D37B681A697B68DB689A421BD3F3
:101410000DE07B681B687A6851697A68D2690A4472
:1014200012785A617B68DB695A1C7B68DA617B68D9
:101430001B689B6803F48073002B05D17B68DA6915
:101440007B689B699A42E4D37B685B6A002B1DD062
:101450007B681A697B68DB689A4217D37B68DA6914
:101460007B689B699A4211D306E07B681B68002267
:101470005A61FB680133FB607B681B689B6803F45F
:101480008073002B02D1FB681F2BEED91437BD46A9
:101490005DF8047B704700BF80B584B000AF786012
:1014A0007B6893F88030022B15D10CE07B681B68B9
:1014B0001B69FB607B685B6F002B04D07B685B6FF4
:1014C000FA68104698477B681B689B6803F04003E6
:1014D000002BEBD030E07B6893F88030012B1FD1DC
:1014E00016E07B681B681B69FB607B681A6B7B6876
:1014F000DB6A9A4207D27B689A6A7B681B6B13444B
:10150000FA68D2B21A707B681B6B5A1C7B681A632C
:101510007B681B689B6803F04003002BE1D00BE065
:1015200003E07B681B681B69FB607B681B689B682A
:1015300003F04003002BF4D01037BD4680BD00BF40
:1015400080B586B000AF78607B681B6820337B6114
:101550007B686C4A934204D07B686B4A934200D00C
:1015600000BE7B691B6803F00203002B4FD07B6831
:1015700093F88030022B15D10CE07B681B681B6947
:10158000FB607B685B6F002B04D07B685B6FFA6845
:10159000104698477B681B689B6803F04003002B4C
:1015A000EBD030E07B6893F88030012B1FD116E040
:1015B0007B681B681B69FB607B681A6B7B68DB6A56
:1015C0009A4207D27B689A6A7B681B6B1344FA685D
:1015D000D2B21A707B681B6B5A1C7B681A637B68DB
:1015E0001B689B6803F04003002BE1D00BE003E095
:1015F0007B681B681B69FB607B681B689B6803F04A
:101600004003002BF4D07B681B680222DA607B6900
:101610001B6803F00103002B11D07B6893F8803026
:10162000022B05D17B681B687A68926F5A6102E0D1
:101630007868FFF7C5FE7B681B680122DA607B696A
:101640001B6803F01003002B21D07868FFF724FFFC
:101650007B681B6A002B0BD07B681B6A7A68916AD7
:101660007A68126B0846114698477868FFF7A8FE1B
:101670007B6801225A627B681B687A681268926AEA
:1016800022F010029A627B681B681022DA607B6984
:101690001B6803F00403002B0ED07B681B687A687C
:1016A0001268D26A42F00402DA627868FFF7F6FD47
:1016B0007B681B680422DA607B691B6803F00803FF
:1016C000002B32D07B681B687A681268D26A42F0BD
:1016D0000802DA627B6893F88030022B16D17B68AF
:1016E0001A687B681B681B6823F47F0323F47F431D
:1016F00043F4807313607B681B687A68926F5A6149
:101700000FE000BF3C250020B82400207B6893F840
:101710008030012B05D17B6800221A617868FFF7C1
:101720004FFE7B681B680822DA607B691B6803F048
:101730002003002B41D07868FFF7AEFE7B681B6B5F
:101740003B617B681B6A002B17D07B6800225A62C2
:101750007B6800225A617B6800229A617B680022C4
:10176000DA617B681B681022DA607B681B687A6824
:101770001268926A42F010029A627B6800221A6133
:101780007B681B687A681268D26A42F00C02DA62DF
:101790007868FFF715FE7B6800221A637B68DB6FB1
:1017A000002B06D07B68DB6F7A68926A1046396935
:1017B00098477B681B682022DA601837BD4680BDD9
:1017C000684620F007018D4689B500AF0348FFF752
:1017D000B7FEBD46BDE88940854670473C250020E0
:1017E000684620F007018D4689B500AF0348FFF732
:1017F000A7FEBD46BDE8894085467047B824002055
:1018000090B484B000AFF860B9607A60FB704B4868
:101810004B4B1A68F97813469B001344DB010344D1
:1018200003F5E07359604749454B1A6813469B001E
:1018300013449B000B44FA685A604249404B1A68B3
:1018400013469B0013449B000B44BA689A603D48C2
:101850003B4B19683B4C3A4B1A6813469B001344A8
:101860009B00234408335B681A0C12040B469B0050
:101870000B449B00034408335A607B68B3F5803FF8
:101880000FD97B68A3F580332F4A1361BB6803F53A
:1018900080332D4AD360FB6803F580332A4A936076
:1018A00019E02848264B1A68264C254B19680B4628
:1018B0009B000B449B00234408335B68796889B222
:1018C000194313469B0013449B000344083359609B
:1018D0001D4B00221A611B48194B1A68194C184BF2
:1018E00019680B469B000B449B00234408335B683C
:1018F00043F4E00113469B0013449B000344083368
:1019000059600E490E4B1A6813469B001344DB01C5
:101910000B4403F5E07301221A600849084B1A686A
:1019200013469B001344DB010B4403F5E4730022D0
:101930005A601037BD4690BC704700BF0000284277
:10194000302400200040014018240020684620F088
:1019500007018D4691B500AF344A354B1B6803F53E
:101960002873012142F823103248314B1A68314C58
:101970002F4B19680B469B000B449B0023440833F4
:101980005B6823F4E00113469B0013449B0003446F
:1019900008335960264B1B680133254A1360244BDA
:1019A0001B68042B02D1224B00221A60224B1B69B8
:1019B000002B17D0214B1B68042B03D11F4B002297
:1019C0001A6004E01D4B1B6801331C4A13601A4B5C
:1019D0009868194BD968184B1A69174B1B7DFFF78C
:1019E0000FFF1EE01349124B1A6813469B00134465
:1019F0009B000B4408335B6803F4E003002B10D119
:101A00000B4B00221A600D4B00221A600A4B012278
:101A10001A70094B5B68002B03D0074B5B680120F1
:101A20009847BD46BDE89140854670470000284272
:101A300034240020004001401824002030240020DD
:101A4000684620F007018D4681B583B000AF384B62
:101A50001B683B603B6803F470633B603B68002B92
:101A60002FD03449344B1A6813469B001344DB01D2
:101A70000B4403F502731B68002B0AD02F4B022284
:101A80001A702E4B5B68002B03D02C4B5B68022036
:101A900098472849284B1A6813469B001344DB01DA
:101AA0000B4403F502735B68002B0AD0234B03221F
:101AB0001A70224B5B68002B03D0204B5B6803201D
:101AC00098471B4B1B683B603B6803F470433B60CB
:101AD0003B68002B0AD0194B04221A70174B5B6825
:101AE000002B03D0154B5B680420984700237B60D4
:101AF00014E010497A6813469B001344DB010B4441
:101B000003F5E47301221A600A4A7B6803F528731F
:101B1000012142F823107B6801337B607B68032B33
:101B2000E7D90C37BD46BDE881408546704700BF08
:101B300000400140000028423424002018240020E6
:101B400080B500AF00F0F6F8044A044B5B6943F43B
:101B500000735361FEF76EFC80BD00BF00ED00E036
:101B600080B588B000AF2F4BD3F8983003F0806376
:101B7000FB61FB69002B4BD12A4BD3F8983003F45F
:101B80008053BB61BB69002B15D1274B274A1A60D4
:101B9000274B264A1A60274B244A1A60264B274AAD
:101BA0001A60274B214A1A60264B204A1A60264B9E
:101BB0001E4A1A602BE0254A3B1D1068516803C37A
:101BC000184BD3F89C309B0903F007037B613A1D47
:101BD0007B6913441B78FB74FB7C012B0AD0022B1E
:101BE0000DD0002B0FD100F035F8F860F86800F048
:101BF0004FF80CE04FF4004000F04AF807E01448BA
:101C000000F046F803E0124800F042F800BF05E09B
:101C100000F020F8F860F86800F03AF82037BD4688
:101C200080BD00BF00800340841F002000E1F50557
:101C3000881F00208C1F0020901F002040787D010D
:101C4000941F0020981F00209C1F0020F81E0020D9
:101C500040420F0080B483B000AF0A4BD3F850313C
:101C600003F004033B603B68002B02D1064B7B6012
:101C700001E0064B7B607B6818460C37BD465DF87B
:101C8000047B70470080034040787D0180F0FA02B9
:101C900080B483B000AF78600C4A7B6813600C4A54
:101CA0007B6813600B4A7B6813600B4B0B4A1A600E
:101CB0000B4A7B6813600B4A7B6813600A4A7B6897
:101CC00013600C37BD465DF8047B7047841F00200D
:101CD000881F00208C1F0020901F002040787D016D
:101CE000941F0020981F00209C1F002080B483B008
:101CF00000AF0E4BD3F84C313B603B684FF602020D
:101D0000934203D00A4A934203D005E001237B604B
:101D100005E002237B6002E000237B6000BF7B685C
:101D200018460C37BD465DF8047B704700800340C1
:101D300002F8010080B582B000AFFFF7D7FF7860EE
:101D40007B68012B00D002E000F004F800BF0837E8
:101D5000BD4680BD80B400AF094A094BD3F8983026
:101D600043F48073C2F89830054A054BD3F8983095
:101D700023F08063C2F89830BD465DF8047B70475D
:101D80000080034080B582B000AF084B0022DA66C5
:101D9000074B18464FF461410322FEF72DFC044B1C
:101DA00018460449FEF760FCF9E700BF00800340D5
:101DB00078240020001F002070B50F4E0F4D761BB9
:101DC000B61018BF002405D0013455F8043B9847DD
:101DD000A642F9D10A4E0B4D00F0BCF8761BB610A6
:101DE00018BF002406D0013455F8043B9847A6429A
:101DF000F9D170BD70BD00BF6C1F00206C1F0020AA
:101E0000741F00206C1F0020024B13B1024800F029
:101E100005B8704700000000291E00200146002080
:101E20000246034600F016B838B5084B084DED1AC7
:101E3000AC1018BFED1805D0013C55F8043D98478B
:101E4000002CF9D1BDE8384000F08AB8741F00209A
:101E5000781F00202DE9F047254C06462568884666
:101E6000D5F8484192469946C4B360681F2817DCEC
:101E7000411C76B104EB8003C3F888A0D4F88851E4
:101E8000012282401543022EC4F88851C3F80891FC
:101E90001ED0831C6160002044F82380BDE8F087D9
:101EA000144B03B34FF4C870AFF300800446D0B1B5
:101EB000D5F84831002784E888003846C5F84841FD
:101EC0000121C4F88871C4F88C71002EE1D0D1E7EB
:101ED000D4F88C311A43C4F88C21DAE705F5A674DE
:101EE000C5F84841C1E74FF0FF30BDE8F08700BFBB
:101EF000501F002000000000000100010202030347
:101F00002A2A2A2A2A2A2A2A2A2A2A2A2A2A2A2A31
:101F10002A2A2A2A20536D617274467573696F6E7E
:101F200032204D4D55415254204578616D706C659D
:101F3000202A2A2A2A2A2A2A2A2A2A2A2A2A2A2A0B
:101F40002A2A2A2A2A2A0A0D00000000430000003B
:101F5000A01F0020F8B500BFF8BC08BC9E46704723
:101F6000F8B500BFF8BC08BC9E467047091E0020AB
:101F7000E5040020C1040020000000000000000073
:101F80000000000000E1F50500E1F50500E1F505C0
:101F900040787D0100E1F50500E1F50500E1F5057A
:101FA000000000008C220020F42200205C2300208E
:101FB0000000000000000000000000000000000021
:101FC0000000000000000000000000000000000011
:101FD000000000004C1F0020000000000000000076
:101FE00000000000000000000000000000000000F1
:101FF00000000000000000000000000000000000E1
:1020000000000000000000000000000000000000D0
:1020100000000000000000000000000000000000C0
:1020200000000000000000000000000000000000B0
:1020300000000000000000000000000000000000A0
:10204000000000000000000001000000000000008F
:102050000E33CDAB34126DE6ECDE05000B00000054
:102060000000000000000000000000000000000070
:102070000000000000000000000000000000000060
:102080000000000000000000000000000000000050
:102090000000000000000000000000000000000040
:040000052000019145
:00000001FF
