:020000042000DA
:1000000000000120910100207F03002081030020D7
:1000100083030020850300208703002000000000E8
:100020000000000000000000000000008903002024
:100030008B030020000000008D0300208F030020B0
:1000400091030020930300209503002097030020D4
:10005000990300209B0300209D0300209F030020A4
:10006000A1030020A3030020A5030020A703002074
:10007000A9030020AB030020AD030020AF03002044
:10008000B1030020B3030020B5030020B703002014
:10009000B9030020BB030020BD030020BF030020E4
:1000A000C1030020C3030020C5030020C7030020B4
:1000B000C9030020CB030020CD030020CF03002084
:1000C000D1030020D3030020D5030020D703002054
:1000D000D9030020DB030020DD030020DF03002024
:1000E000E1030020E3030020E5030020E7030020F4
:1000F000E9030020EB030020ED030020EF030020C4
:10010000F1030020F3030020F5030020F703002093
:10011000F9030020FB030020FD030020FF03002063
:10012000010400200304002005040020070400202F
:10013000090400200B0400200D0400200F040020FF
:1001400011040020130400201504002017040020CF
:10015000190400201B0400201D0400201F0400209F
:10016000210400202304002025040020270400206F
:10017000290400202B0400202D0400202F0400203F
:1001800031040020330400200000000000000000C3
:100190004FF0000BDFF8BE020068DFF8B612096806
:1001A00001F0030100F01C00142801D14BF0020BF8
:1001B000002901D04BF0010BBBF1000F05D0A7487F
:1001C000A749DFF8722200F09FF8A64880470BF09D
:1001D000020ABAF1000F0CD0DFF86E02DFF86E12DF
:1001E00002680B680FB44FF000024FF0FF0302608B
:1001F0000B609D489D4A9E4B022808D1DFF83E12B5
:100200000A60DFF842120A60DFF836120B6001283C
:1002100008D1DFF82E120A60DFF82A120A60DFF830
:100220001E120B609348002809D193489349944AC1
:1002300000F032F893489449944A00F02DF894481D
:100240009449954A00F028F894489549DFF8E6214A
:1002500000F05AF8BBF1000F12D092489249DFF833
:10026000DA2100F051F80BF0020ABAF1000F07D0C2
:100270000FBC02600B6000BFAFF30080AFF30080E3
:10028000DFF828020FF2030E00474FF000004FF096
:100290000001DFF81CF2FEE72DE9F841884225D085
:1002A000B2EB010200D5FEE740EA010313F00303BD
:1002B00002D000F01DF819E04FF000039046121133
:1002C000F7D09A421CBFF0C8F0C103F10103F8D186
:1002D00008F00F08B8F1000F08D004780C7000F196
:1002E000010001F10101B8F10108F6D1BDE8F88182
:1002F00008B54FF0000303780B7000F1010001F125
:100300000101013AF7D108BD884237D000F0030659
:10031000002E14D04FF00405A5EB06044FF008079B
:1003200007FB06F8914669FA08F9002C07D080F817
:10033000009069FA07F900F10100013CF5E74FF080
:1003400000060F46091A88460911914614461546BB
:10035000B14206D018BFA0E8340206F10106B1424E
:10036000F8D108F00F08B8F1000F07D002704FEA7B
:10037000322200F10100B8F10108F4E77047FEE70E
:10038000FEE7FEE7FEE7FEE7FEE7FEE7FEE7FEE745
:10039000FEE7FEE7FEE7FEE7FEE7FEE7FEE7FEE735
:1003A000FEE7FEE7FEE7FEE7FEE7FEE7FEE7FEE725
:1003B000FEE7FEE7FEE7FEE7FEE7FEE7FEE7FEE715
:1003C000FEE7FEE7FEE7FEE7FEE7FEE7FEE7FEE705
:1003D000FEE7FEE7FEE7FEE7FEE7FEE7FEE7FEE7F5
:1003E000FEE7FEE7FEE7FEE7FEE7FEE7FEE7FEE7E5
:1003F000FEE7FEE7FEE7FEE7FEE7FEE7FEE7FEE7D5
:10040000FEE7FEE7FEE7FEE7FEE7FEE7FEE7FEE7C4
:10041000FEE7FEE7FEE7FEE7FEE7FEE7FEE7FEE7B4
:10042000FEE7FEE7FEE7FEE7FEE7FEE7FEE7FEE7A4
:10043000FEE7FEE7704700000000A2A2A2A2008033
:100440000340088003401080034030800340348024
:1004500003403880034018080240000000F00020EC
:10046000000001203908002000000000000000000A
:10047000010000000000000000000020000000203B
:1004800090010020C0040020C0040020C00A002009
:10049000C00A0020C00A0020600F0020600F00206A
:1004A000900F0020900F002000F000204D09002048
:1004B000F108002000000000000000000000000023
:1004C00010B5054C237833B9044B13B10448AFF38E
:1004D00000800123237010BD600F00200000000089
:1004E000940A0020084B10B51BB108480849AFF327
:1004F00000800848036803B910BD074B002BFBD0F0
:10050000BDE81040184700BF00000000940A00201A
:10051000640F0020C00A0020000000000160704746
:10052000006870470EB503FA01F303EA020301689D
:100530006FEA020201EA020141EA030101600EBD15
:10054000006800EA020020FA01F07047018070475D
:10055000008870470EB503FA01F303EA020301882D
:100560006FEA020201EA020141EA030101800EBDC5
:10057000008800EA020020FA01F07047017070471D
:10058000007870470EB503FA01F303EA020301781D
:100590006FEA020201EA020141EA030101700EBDA5
:1005A000007800EA020020FA01F0704780B586B0BA
:1005B00000AFF860B96011461A460B46FB8013463F
:1005C0007B71FB68002B00D100BE7B79072B00D923
:1005D00000BEFB88B3F5005F00D300BEFB68002BB4
:1005E00069D07B79072B66D8FB88B3F5005F62D2B0
:1005F000BB6803F10802FB88DBB210461946FFF71F
:10060000BDFFBB6803F10C017B79FA8802F47F42DD
:100610005211134308461946FFF7B0FFFB68BA684A
:100620001A60FB681B6808331846FFF7A9FF0346EA
:10063000BB82FB681B680C331846FFF7A1FF03461B
:10064000FB74FB7C23F00703BB74BB7C9BB25B0198
:100650009AB2BB8A1343BB82FB7C03F00703FB7493
:10066000BA8AFB889A4200D000BEFA7C7B799A4213
:1006700000D000BEFB681B6810331846FFF780FFF0
:10068000034603F00203FB750FE0FB681B680433AD
:100690001846FFF775FFFB681B6810331846FFF715
:1006A0006FFF034603F00203FB75FB7D002BECD1CB
:1006B000FB6800221A711837BD4680BD80B586B030
:1006C00000AFF860B9607A60FB68002B00D100BE13
:1006D000BB68002B00D100BE7B68002B00D100BEA0
:1006E000FB68002B26D0BB68002B23D07B68002B37
:1006F00020D000237B6119E0FB681B68103318468B
:10070000FFF73EFF034603F00103FB74FB7C002B65
:10071000F2D0FB681968BA687B6913441B780846F5
:100720001946FFF72BFF7B6901337B617A697B6890
:100730009A42E1D31837BD4680BD00BF90B589B05D
:1007400000AFF860B9607A600023BB61FB68002BE2
:1007500000D100BEBB68002B00D100BE7B68002B1F
:1007600000D100BEFB68002B43D0BB68002B40D0FB
:100770007B68002B3DD00023BB61FB681B681033F6
:100780001846FFF7FDFE0346FB75FB681A79FB7DF3
:100790001343DAB2FB681A71FB7D03F00203FB77A7
:1007A00020E0BA68BB69D418FB681B68043318469C
:1007B000FFF7E6FE03462370BB690133BB61FB68AC
:1007C0001B6810331846FFF7DBFE0346FB75FB681A
:1007D0001A79FB7D1343DAB2FB681A71FB7D03F0D3
:1007E0000203FB77FB7F002B03D0BA697B689A4238
:1007F000D7D3BB6918462437BD4690BD80B485B0B9
:1008000000AF7860FF23FB737B68002B00D100BE34
:100810007B68002B08D07B681B7903F01C039B10BE
:10082000FB737B6800221A71FB7B18461437BD46A8
:100830005DF8047B704700BF80B500AF00F030F872
:10084000044A044B5B6943F400735361FFF7F2FD04
:1008500080BD00BF00ED00E080B483B000AF0E4B60
:10086000D3F84C313B603B684FF60202934203D011
:100870000A4A934203D005E001237B6005E002238E
:100880007B6002E000237B6000BF7B6818460C376A
:10089000BD465DF8047B70470080034002F801000C
:1008A00080B582B000AFFFF7D7FF78607B68012B7F
:1008B00000D002E000F004F800BF0837BD4680BD5C
:1008C00080B400AF094A094BD3F8983043F48073E1
:1008D000C2F89830054A054BD3F8983023F080636E
:1008E000C2F89830BD465DF8047B70470080034035
:1008F00080B5C2B000AF13484FF050214C22012305
:10090000FFF754FE0F4810496922FFF7D7FE0D4844
:10091000FFF774FF0346002B13D13B1D094819460E
:100920004FF48072FFF70AFFC7F80401D7F80431CB
:10093000002B06D03B1D03481946D7F80421FFF7CA
:10094000BDFEE4E77C0F0020C40A002070B50F4E06
:100950000F4D761BB61018BF002405D0013455F892
:10096000043B9847A642F9D10A4E0B4D00F092F88D
:10097000761BB61018BF002406D0013455F8043B8E
:100980009847A642F9D170BD70BD00BFAC0A0020E7
:10099000AC0A0020B40A0020AC0A0020024B13B1BC
:1009A000024800F005B8704700000000BD090020B3
:1009B000014600200246034600F016B838B5084B41
:1009C000084DED1AAC1018BFED1805D0013C55F8D4
:1009D000043D9847002CF9D1BDE8384000F060B8DC
:1009E000B40A0020B80A00202DE9F047254C06463D
:1009F00025688846D5F8484192469946C4B3606850
:100A00001F2817DC411C76B104EB8003C3F888A0D3
:100A1000D4F88851012282401543022EC4F888512F
:100A2000C3F808911ED0831C6160002044F8238025
:100A3000BDE8F087144B03B34FF4C870AFF30080E8
:100A40000446D0B1D5F84831002784E888003846FC
:100A5000C5F848410121C4F88871C4F88C71002E92
:100A6000E1D0D1E7D4F88C311A43C4F88C21DAE70D
:100A700005F5A674C5F84841C1E74FF0FF30BDE861
:100A8000F08700BF900A0020000000004300000033
:100A9000300B0020F8B500BFF8BC08BC9E4670477C
:100AA000F8B500BFF8BC08BC9E4670479D09002001
:100AB000E5040020C1040020000000000000000048
:100AC000000000000A0D0A0D0A0D436F72655541C2
:100AD000525461706220706F6C6C65642074726136
:100AE0006E736D697474657220616E6420726563E3
:100AF0006569766572206578616D706C652E200A77
:100B00000D416C6C2063686172616374657273205F
:100B100074797065642077696C6C20626520656308
:100B2000686F6564206261636B2E0A0D000000002F
:100B3000000000001C0E0020840E0020EC0E00209F
:100B400000000000000000000000000000000000A5
:100B50000000000000000000000000000000000095
:100B6000000000008C0A00200000000000000000CF
:100B70000000000000000000000000000000000075
:100B80000000000000000000000000000000000065
:100B90000000000000000000000000000000000055
:100BA0000000000000000000000000000000000045
:100BB0000000000000000000000000000000000035
:100BC0000000000000000000000000000000000025
:100BD0000000000000000000010000000000000014
:100BE0000E33CDAB34126DE6ECDE05000B000000D9
:100BF00000000000000000000000000000000000F5
:100C000000000000000000000000000000000000E4
:100C100000000000000000000000000000000000D4
:100C200000000000000000000000000000000000C4
:040000052000019145
:00000001FF
