:020000042000DA
:1000000000000120910100207F03002081030020D7
:1000100083030020850300208703002000000000E8
:100020000000000000000000000000008903002024
:100030008B030020000000008D0300208F030020B0
:1000400091030020930300209503002097030020D4
:10005000990300209B0300209D0300209F030020A4
:10006000A1030020A3030020A5030020A703002074
:10007000A9030020AB030020AD030020AF03002044
:10008000B1030020B3030020B5030020AD0500201C
:10009000B9030020BB030020BD030020BF030020E4
:1000A000C1030020C3030020C50300200D0C002065
:1000B000010D0020CB030020CD030020CF03002042
:1000C000D1030020D3030020D503002051130020CA
:1000D000D9030020DB030020DD030020DF03002024
:1000E000E1030020E3030020E5030020E7030020F4
:1000F000E9030020EB030020ED030020EF030020C4
:10010000F1030020F3030020F5030020F703002093
:10011000F9030020FB030020FD030020FF03002063
:10012000010400200304002005040020070400202F
:10013000090400200B0400200D0400200F040020FF
:1001400011040020130400201504002017040020CF
:10015000190400201B0400201D0400201F0400209F
:10016000210400202304002025040020270400206F
:10017000290400202B0400202D0400202F0400203F
:1001800031040020330400200000000000000000C3
:100190004FF0000BDFF8BE020068DFF8B612096806
:1001A00001F0030100F01C00142801D14BF0020BF8
:1001B000002901D04BF0010BBBF1000F05D0A7487F
:1001C000A749DFF8722200F09FF8A64880470BF09D
:1001D000020ABAF1000F0CD0DFF86E02DFF86E12DF
:1001E00002680B680FB44FF000024FF0FF0302608B
:1001F0000B609D489D4A9E4B022808D1DFF83E12B5
:100200000A60DFF842120A60DFF836120B6001283C
:1002100008D1DFF82E120A60DFF82A120A60DFF830
:100220001E120B609348002809D193489349944AC1
:1002300000F032F893489449944A00F02DF894481D
:100240009449954A00F028F894489549DFF8E6214A
:1002500000F05AF8BBF1000F12D092489249DFF833
:10026000DA2100F051F80BF0020ABAF1000F07D0C2
:100270000FBC02600B6000BFAFF30080AFF30080E3
:10028000DFF828020FF2030E00474FF000004FF096
:100290000001DFF81CF2FEE72DE9F841884225D085
:1002A000B2EB010200D5FEE740EA010313F00303BD
:1002B00002D000F01DF819E04FF000039046121133
:1002C000F7D09A421CBFF0C8F0C103F10103F8D186
:1002D00008F00F08B8F1000F08D004780C7000F196
:1002E000010001F10101B8F10108F6D1BDE8F88182
:1002F00008B54FF0000303780B7000F1010001F125
:100300000101013AF7D108BD884237D000F0030659
:10031000002E14D04FF00405A5EB06044FF008079B
:1003200007FB06F8914669FA08F9002C07D080F817
:10033000009069FA07F900F10100013CF5E74FF080
:1003400000060F46091A88460911914614461546BB
:10035000B14206D018BFA0E8340206F10106B1424E
:10036000F8D108F00F08B8F1000F07D002704FEA7B
:10037000322200F10100B8F10108F4E77047FEE70E
:10038000FEE7FEE7FEE7FEE7FEE7FEE7FEE7FEE745
:10039000FEE7FEE7FEE7FEE7FEE7FEE7FEE7FEE735
:1003A000FEE7FEE7FEE7FEE7FEE7FEE7FEE7FEE725
:1003B000FEE7FEE7FEE7FEE7FEE7FEE7FEE7FEE715
:1003C000FEE7FEE7FEE7FEE7FEE7FEE7FEE7FEE705
:1003D000FEE7FEE7FEE7FEE7FEE7FEE7FEE7FEE7F5
:1003E000FEE7FEE7FEE7FEE7FEE7FEE7FEE7FEE7E5
:1003F000FEE7FEE7FEE7FEE7FEE7FEE7FEE7FEE7D5
:10040000FEE7FEE7FEE7FEE7FEE7FEE7FEE7FEE7C4
:10041000FEE7FEE7FEE7FEE7FEE7FEE7FEE7FEE7B4
:10042000FEE7FEE7FEE7FEE7FEE7FEE7FEE7FEE7A4
:10043000FEE7FEE7704700000000A2A2A2A2008033
:100440000340088003401080034030800340348024
:1004500003403880034018080240000000F00020EC
:10046000000001206D1100200000000000000000CD
:10047000010000000000000000000020000000203B
:1004800090010020C0040020C004002010150020AE
:1004900010150020101500204019002040190020E0
:1004A000C0190020C019002000F00020A113002076
:1004B000DD1200200000000000000000000000002D
:1004C00010B5054C237833B9044B13B10448AFF38E
:1004D00000800123237010BD40190020000000009F
:1004E000E8140020084B10B51BB108480849AFF3C9
:1004F00000800848036803B910BD074B002BFBD0F0
:10050000BDE81040184700BF00000000E8140020BC
:100510004419002010150020000000000160704701
:10052000006870470EB503FA01F303EA020301689D
:100530006FEA020201EA020141EA030101600EBD15
:10054000006800EA020020FA01F07047018070475D
:10055000008870470EB503FA01F303EA020301882D
:100560006FEA020201EA020141EA030101800EBDC5
:10057000008800EA020020FA01F07047017070471D
:10058000007870470EB503FA01F303EA020301781D
:100590006FEA020201EA020141EA030101700EBDA5
:1005A000007800EA020020FA01F0704780B582B0BE
:1005B00000AF0F4B5B68FB710D4B9B68DAB2FB79A8
:1005C0001340FB71FB7903F00203BB71BB79002B75
:1005D00001D000F0E7F8FB7903F001037B717B7930
:1005E000002B01D000F006F80837BD4680BD00BFE3
:1005F0000060014080B584B000AF634B1B78022BD4
:100600003FD0052B6BD0012B40F0AD805F4B1B889A
:100610009BB2002B30D05E4B1A685C4B1B889BB2A0
:100620001046194600F006FAF860584B1B889BB23A
:100630001A46FB689A420FD9544B1B889AB2FB6842
:100640009BB2D31A9AB2514B1A80514B1A68FB686D
:1006500013444F4A13600EE04C4B00221A804D4B5E
:100660001B68002B03D0484B02221A7003E0464B54
:1006700003221A7004E003E000BE00F0B5F97FE049
:100680007EE0444B1B68002B24D0434B1A68414B3F
:100690001B681046194600F0CDF9B8603D4B1B6849
:1006A000BA689A420CD23B4B1A68BB68D31A394AD3
:1006B0001360394B1A68BB681344374A13600DE066
:1006C000364A364B9B6823F0010393602E4B03227E
:1006D0001A7003E000BE00F087F951E050E02D4BA6
:1006E0001B68002B1BD12E4B1B68002B14D02C4BEE
:1006F0001B68294898470246264B1A60254B1B6801
:10070000002B0CD1254A254B9B6823F001039360F5
:100710001D4B03221A7002E000BE00F065F91D4B6C
:100720001B68002B09D11D4A1C4B9B6823F0010359
:100730009360154B03221A7022E0174B1A68154B71
:100740001B681046194600F075F97860114B1A685D
:100750007B68D31A0F4A13600F4B1A687B681344E7
:100760000D4A13600CE00D4A0C4B9B6823F001030B
:100770009360002000F018F9034B00221A7000BFAC
:100780001037BD4680BD00BF8119002064190020CC
:10079000601900206C1900206819002000600140D9
:1007A0007C19002080B584B000AF794B1B69FB81B8
:1007B000FB8923F4FF4323F07F03BB81FB89FB729A
:1007C000744B1B78052B00F2D88001A252F823F05D
:1007D000E907002065090020650900204108002084
:1007E0008F08002039090020BB89002B27D0FB7A15
:1007F000F12B06D0FB7ABB72BB7A184600F04CF99D
:100800001DE0654B00221A80644B1B68624A128807
:1008100092B21344FA7A1A705F4B1B889BB2013371
:100820009AB25D4B1A805D4B1B685B4A128892B28C
:10083000134400221A70574B04221A70A4E0A3E05C
:10084000BB89002B22D0FB7A7B72554B1B78DBB225
:100850007A7A9A4215D1504B00221A804F4B1B686E
:100860004D4A128892B213447A7A1A704A4B1B8806
:100870009BB201339AB2484B1A80464B04221A703D
:1008800004E07B7A184600F007F97DE07CE0BB8944
:10089000002B06D0FB7A3B723B7A184600F0FCF83E
:1008A00049E03E4B1A683C4B1B889BB2013B13440A
:1008B0001B78F12B16D1394B1B68374A128892B23C
:1008C0001344FA7A1A70354B1A68334B1B889BB263
:1008D000013B13441B78184600F0DEF82D4B002234
:1008E0001A7028E02C4B1B889AB22E4B1B889A4218
:1008F00010D2FB7AFB71294B1B68274A128892B2EF
:100900001344FA791A70244B1B889BB201339AB2B4
:10091000214B1A80204B1B889AB2224B1B889A428B
:1009200009D11D4B1B889BB2184600F03DF8194BAE
:1009300000221A7028E027E0BB89002B0BD1174B4F
:100940001B680133FA7A1A70022000F02DF8114B5F
:1009500000221A7018E0FB7ABB71BB79184600F0D0
:100960009BF811E0BB89002B06D0FB7A7B717B7969
:10097000184600F091F807E006E0002000F014F8B7
:10098000044B00221A7000BF1037BD4680BD00BF67
:1009900000600140811900207619002070190020A4
:1009A0005C1900207419002080B582B000AF0346A6
:1009B000FB800A4B1B68002B0DD0084B1B68084AB4
:1009C0001168FA88084611469847044B00221A60BD
:1009D000044B00221A700837BD4680BD78190020EC
:1009E000701900208019002080B582B000AF0E4B36
:1009F0001B78DBB2002B13D00C4B1B889BB2184624
:100A0000FFF7D2FF0A4A0A4B1B6843F00103136049
:100A1000074B1B6803F001037B607B68002BF7D159
:100A20000837BD4680BD00BF801900207619002020
:100A30000060014080B485B000AF78603960154A2D
:100A4000144B1B6823F0040313600023FB60114B5D
:100A50005B6803F00103BB600DE00E497A68FB6838
:100A600013441B780B61FB680133FB60094B5B6827
:100A700003F00103BB60BB68002B03D0FA683B683E
:100A80009A42EAD3FB6818461437BD465DF8047BEA
:100A9000704700BF0060014080B582B000AF0346E0
:100AA000FB71064B1B68002B04D0044B1B68FA79C2
:100AB000104698470837BD4680BD00BF8419002006
:100AC00090B484B000AFF860B9607A60FB704B48B6
:100AD0004B4B1A68F97813469B001344DB0103441F
:100AE00003F5E07359604749454B1A6813469B006C
:100AF00013449B000B44FA685A604249404B1A6801
:100B000013469B0013449B000B44BA689A603D480F
:100B10003B4B19683B4C3A4B1A6813469B001344F5
:100B20009B00234408335B681A0C12040B469B009D
:100B30000B449B00034408335A607B68B3F5803F45
:100B40000FD97B68A3F580332F4A1361BB6803F587
:100B500080332D4AD360FB6803F580332A4A9360C3
:100B600019E02848264B1A68264C254B19680B4675
:100B70009B000B449B00234408335B68796889B26F
:100B8000194313469B0013449B00034408335960E8
:100B90001D4B00221A611B48194B1A68194C184B3F
:100BA00019680B469B000B449B00234408335B6889
:100BB00043F4E00113469B0013449B0003440833B5
:100BC00059600E490E4B1A6813469B001344DB0113
:100BD0000B4403F5E07301221A600849084B1A68B8
:100BE00013469B001344DB010B4403F5E47300221E
:100BF0005A601037BD4690BC704700BF00002842C5
:100C0000A01900200040014088190020684620F00B
:100C100007018D4691B500AF344A354B1B6803F58B
:100C20002873012142F823103248314B1A68314CA5
:100C30002F4B19680B469B000B449B002344083341
:100C40005B6823F4E00113469B0013449B000344BC
:100C500008335960264B1B680133254A1360244B27
:100C60001B68042B02D1224B00221A60224B1B6905
:100C7000002B17D0214B1B68042B03D11F4B0022E4
:100C80001A6004E01D4B1B6801331C4A13601A4BA9
:100C90009868194BD968184B1A69174B1B7DFFF7D9
:100CA0000FFF1EE01349124B1A6813469B001344B2
:100CB0009B000B4408335B6803F4E003002B10D166
:100CC0000B4B00221A600D4B00221A600A4B0122C6
:100CD0001A70094B5B68002B03D0074B5B6801203F
:100CE0009847BD46BDE891408546704700002842C0
:100CF000A41900200040014088190020A0190020FC
:100D0000684620F007018D4681B583B000AF384BAF
:100D10001B683B603B6803F470633B603B68002BDF
:100D20002FD03449344B1A6813469B001344DB011F
:100D30000B4403F502731B68002B0AD02F4B0222D1
:100D40001A702E4B5B68002B03D02C4B5B68022083
:100D500098472849284B1A6813469B001344DB0127
:100D60000B4403F502735B68002B0AD0234B03226C
:100D70001A70224B5B68002B03D0204B5B6803206A
:100D800098471B4B1B683B603B6803F470433B6018
:100D90003B68002B0AD0194B04221A70174B5B6872
:100DA000002B03D0154B5B680420984700237B6021
:100DB00014E010497A6813469B001344DB010B448E
:100DC00003F5E47301221A600A4A7B6803F528736D
:100DD000012142F823107B6801337B607B68032B81
:100DE000E7D90C37BD46BDE881408546704700BF56
:100DF0000040014000002842A4190020881900206A
:100E000080B586B000AFF860B9601346FB7100236F
:100E1000FB75BB683B61FB68BA681A60FB68FA79CE
:100E20001A710023FB75BB683B6109E0386900213A
:100E3000FFF7A4FB3B6904333B61FB7D0133FB758A
:100E4000FB7D1F2BF2D9FB681B79012B0DD0022BE8
:100E500002D0002B1AD036E0FB681B68803318469E
:100E60004FF0FF31FFF75AFB2FE0FB681B68803320
:100E700018464FF6FF71FFF769FBFB681B68843368
:100E800018464FF6FF71FFF761FB1EE0FB681B6819
:100E900080331846FF21FFF771FBFB681B68843322
:100EA0001846FF21FFF76AFBFB681B68883318466A
:100EB000FF21FFF763FBFB681B688C331846FF219B
:100EC000FFF75CFB01E000BE00BF1837BD4680BDE8
:100ED00080B586B000AFF8600B467A60FB72FB7A93
:100EE0001F2B00D900BEFB7A1F2B14D8FB681B6890
:100EF0007B61FB7A9B001A467B6913447B617869AE
:100F00007968FFF70BFB7869FFF70AFB02467B68FD
:100F10009A4200D000BE1837BD4680BD80B586B06D
:100F200000AF78600B46FB701346BB70FB781F2B3D
:100F300000D900BE7B681B79012B28D0022B02D080
:100F4000002B5ED08DE07B681B68A0331846FFF74E
:100F5000E7FA7861BB78002B09D1FB78012202FA0D
:100F600003F3DB431A467B6913407B6107E0FB78A0
:100F7000012202FA03F31A467B6913437B617B6803
:100F80001B68A03318467969FFF7C8FA6BE07B68E5
:100F90001B68FA781209D2B292001344A033FB60A6
:100FA000F868FFF7D5FA03467B82BB78002B0DD19A
:100FB000FB7803F00F03012202FA03F39BB2DB4339
:100FC0009AB27B8A13409BB27B820AE0FB7803F0E3
:100FD0000F03012202FA03F39AB27B8A13439BB2F6
:100FE0007B827B8AF8681946FFF7B0FAF868FFF74A
:100FF000AFFA03461A467B8A934201D000BE32E024
:1010000031E07B681B68FA78D208D2B292001344B0
:10101000A033BB60B868FFF7B3FA03467B74BB78B4
:10102000002B0DD1FB7803F00703012202FA03F332
:10103000DBB2DB43DAB27B7C1340DBB27B740AE0C9
:10104000FB7803F00703012202FA03F3DAB27B7C98
:101050001343DBB27B747B7CB8681946FFF78EFACA
:1010600001E000BE00BF1837BD4680BD80B584B02A
:1010700000AF78600B46FB707B681B68FB60FB78F9
:101080001F2B00D900BEFB781F2B12D8FB789B00CA
:101090001A46FB681344FB60F868FFF771FA0346D1
:1010A000BB60BB6843F00803BB60F868B968FFF732
:1010B00065FA1037BD4680BD80B584B000AF78605A
:1010C0000B46FB70FB78012202FA03F3FB607B689E
:1010D0001B79012B0CD0022B02D0002B1AD03FE041
:1010E0007B681B6880331846F968FFF717FA39E008
:1010F0007B681B6880331846F968FFF727FA7B681E
:101100001B6803F18402FB681B0C10461946FFF7AD
:101110001DFA27E07B681B6880331846F968FFF7E3
:101120002DFA7B681B6803F18402FB681B0A1046DA
:101130001946FFF723FA7B681B6803F18802FB68F6
:101140001B0C10461946FFF719FA7B681B6803F160
:101150008C02FB681B0E10461946FFF70FFA01E0E0
:1011600000BE00BF1037BD4680BD00BF80B500AFD8
:1011700000F030F8044A044B5B6943F40073536198
:10118000FFF758F980BD00BF00ED00E080B483B0E8
:1011900000AF0E4BD3F84C313B603B684FF6020278
:1011A000934203D00A4A934203D005E001237B60B7
:1011B00005E002237B6002E000237B6000BF7B68C8
:1011C00018460C37BD465DF8047B7047008003402D
:1011D00002F8010080B582B000AFFFF7D7FF78605A
:1011E0007B68012B00D002E000F004F800BF083754
:1011F000BD4680BD80B400AF094A094BD3F8983092
:1012000043F48073C2F89830054A054BD3F8983000
:1012100023F08063C2F89830BD465DF8047B7047C8
:101220000080034080B483B000AF0346FB710849DF
:1012300097F907305B09FA7902F01F02012000FAE2
:1012400002F241F823200C37BD465DF8047B70475D
:1012500000E100E080B483B000AF0346FB710949B0
:1012600097F907305B09FA7902F01F02012000FAB2
:1012700002F2603341F823200C37BD465DF8047B51
:10128000704700BF00E100E080B483B000AF0346C8
:101290003960FB7197F90730002B0BDA0D49FB79A8
:1012A00003F00F03043B3A68D2B21201D2B20B44EE
:1012B0001A7609E0084997F907303A68D2B2120164
:1012C000D2B20B4483F800230C37BD465DF8047B93
:1012D000704700BF00ED00E000E100E080B500AF26
:1012E00023200521FFF7D0FF2320FFF7B3FF174886
:1012F0004FF040510222FFF783FD144800210522E0
:10130000FFF7E6FD114801210222FFF7E1FD0F483A
:1013100000210122FFF702FE0C480121FFF7A6FE83
:101320002320FFF77FFF094800210122FFF7F6FD88
:101330004FF47A7000F01EF8044800210022FFF7F5
:10134000EDFD4FF47A7000F015F8ECE7A8190020D5
:1013500080B500AF064800210122FFF7DFFD0448F9
:101360000121FFF7A9FE2320FFF774FF80BD00BF16
:10137000A819002080B485B000AF78607B6841F286
:10138000883202FB03F3FB6002E0FB68013BFB6079
:10139000FB68002BF9D11437BD465DF8047B70471C
:1013A00070B50F4E0F4D761BB61018BF002405D038
:1013B000013455F8043B9847A642F9D10A4E0B4D2B
:1013C00000F092F8761BB61018BF002406D0013446
:1013D00055F8043B9847A642F9D170BD70BD00BFD7
:1013E0000015002000150020081500200015002021
:1013F000024B13B1024800F005B87047000000002E
:1014000011140020014600200246034600F016B8E1
:1014100038B5084B084DED1AAC1018BFED1805D0C3
:10142000013C55F8043D9847002CF9D1BDE83840FF
:1014300000F060B8081500200C1500202DE9F047D9
:10144000254C064625688846D5F848419246994677
:10145000C4B360681F2817DC411C76B104EB80031D
:10146000C3F888A0D4F88851012282401543022E87
:10147000C4F88851C3F808911ED0831C6160002015
:1014800044F82380BDE8F087144B03B34FF4C870D1
:10149000AFF300800446D0B1D5F84831002784E886
:1014A00088003846C5F848410121C4F88871C4F85D
:1014B0008C71002EE1D0D1E7D4F88C311A43C4F8F6
:1014C0008C21DAE705F5A674C5F84841C1E74FF06D
:1014D000FF30BDE8F08700BFE414002000000000EA
:1014E0004300000018150020F8B500BFF8BC08BC88
:1014F0009E467047F8B500BFF8BC08BC9E467047D2
:10150000F1130020E5040020C104002000000000C9
:10151000000000000000000000000000041800208F
:101520006C180020D418002000000000000000000B
:1015300000000000000000000000000000000000AB
:10154000000000000000000000000000E014002087
:10155000000000000000000000000000000000008B
:10156000000000000000000000000000000000007B
:10157000000000000000000000000000000000006B
:10158000000000000000000000000000000000005B
:10159000000000000000000000000000000000004B
:1015A000000000000000000000000000000000003B
:1015B000000000000000000000000000000000002B
:1015C00001000000000000000E33CDAB34126DE6C8
:1015D000ECDE05000B000000000000000000000031
:1015E00000000000000000000000000000000000FB
:1015F00000000000000000000000000000000000EB
:1016000000000000000000000000000000000000DA
:1016100000000000000000000000000000000000CA
:040000052000019145
:00000001FF
