:020000042000DA
:1000000000000120910100207F03002081030020D7
:1000100083030020850300208703002000000000E8
:100020000000000000000000000000008903002024
:100030008B030020000000008D0300208F030020B0
:1000400091030020930300201D2300203D23002066
:10005000990300209B0300209D0300209F030020A4
:10006000A1030020A3030020A10B0020C10B00204E
:10007000A903002059280020AD030020AF03002071
:10008000B1030020B3030020B5030020D9110020E4
:10009000B9030020BB030020BD030020BF030020E4
:1000A000C1030020C3030020C5030020212A002033
:1000B000152B0020CB030020CD030020CF03002010
:1000C000D1030020D3030020D5030020D703002054
:1000D000D9030020DB030020DD030020DF03002024
:1000E000E1030020E3030020E5030020E7030020F4
:1000F000E9030020EB030020ED030020EF030020C4
:10010000F1030020F3030020F5030020F703002093
:10011000F9030020FB030020FD030020FF03002063
:10012000010400200304002005040020070400202F
:10013000090400200B0400200D0400200F040020FF
:1001400011040020130400201504002017040020CF
:10015000190400201B0400201D0400201F0400209F
:10016000210400202304002025040020270400206F
:10017000290400202B0400202D0400202F0400203F
:1001800031040020330400200000000000000000C3
:100190004FF0000BDFF8BE020068DFF8B612096806
:1001A00001F0030100F01C00142801D14BF0020BF8
:1001B000002901D04BF0010BBBF1000F05D0A7487F
:1001C000A749DFF8722200F09FF8A64880470BF09D
:1001D000020ABAF1000F0CD0DFF86E02DFF86E12DF
:1001E00002680B680FB44FF000024FF0FF0302608B
:1001F0000B609D489D4A9E4B022808D1DFF83E12B5
:100200000A60DFF842120A60DFF836120B6001283C
:1002100008D1DFF82E120A60DFF82A120A60DFF830
:100220001E120B609348002809D193489349944AC1
:1002300000F032F893489449944A00F02DF894481D
:100240009449954A00F028F894489549DFF8E6214A
:1002500000F05AF8BBF1000F12D092489249DFF833
:10026000DA2100F051F80BF0020ABAF1000F07D0C2
:100270000FBC02600B6000BFAFF30080AFF30080E3
:10028000DFF828020FF2030E00474FF000004FF096
:100290000001DFF81CF2FEE72DE9F841884225D085
:1002A000B2EB010200D5FEE740EA010313F00303BD
:1002B00002D000F01DF819E04FF000039046121133
:1002C000F7D09A421CBFF0C8F0C103F10103F8D186
:1002D00008F00F08B8F1000F08D004780C7000F196
:1002E000010001F10101B8F10108F6D1BDE8F88182
:1002F00008B54FF0000303780B7000F1010001F125
:100300000101013AF7D108BD884237D000F0030659
:10031000002E14D04FF00405A5EB06044FF008079B
:1003200007FB06F8914669FA08F9002C07D080F817
:10033000009069FA07F900F10100013CF5E74FF080
:1003400000060F46091A88460911914614461546BB
:10035000B14206D018BFA0E8340206F10106B1424E
:10036000F8D108F00F08B8F1000F07D002704FEA7B
:10037000322200F10100B8F10108F4E77047FEE70E
:10038000FEE7FEE7FEE7FEE7FEE7FEE7FEE7FEE745
:10039000FEE7FEE7FEE7FEE7FEE7FEE7FEE7FEE735
:1003A000FEE7FEE7FEE7FEE7FEE7FEE7FEE7FEE725
:1003B000FEE7FEE7FEE7FEE7FEE7FEE7FEE7FEE715
:1003C000FEE7FEE7FEE7FEE7FEE7FEE7FEE7FEE705
:1003D000FEE7FEE7FEE7FEE7FEE7FEE7FEE7FEE7F5
:1003E000FEE7FEE7FEE7FEE7FEE7FEE7FEE7FEE7E5
:1003F000FEE7FEE7FEE7FEE7FEE7FEE7FEE7FEE7D5
:10040000FEE7FEE7FEE7FEE7FEE7FEE7FEE7FEE7C4
:10041000FEE7FEE7FEE7FEE7FEE7FEE7FEE7FEE7B4
:10042000FEE7FEE7FEE7FEE7FEE7FEE7FEE7FEE7A4
:10043000FEE7FEE7704700000000A2A2A2A2008033
:100440000340088003401080034030800340348024
:1004500003403880034018080240000000F00020EC
:1004600000000120D92C0020000000000000000046
:10047000010000000000000000000020000000203B
:1004800090010020C0040020C0040020603B002038
:10049000603B0020603B0020805C0020805C0020EE
:1004A000A0770020A077002000F000202530002059
:1004B0001D2F0020000000000000000000000000D0
:1004C00010B5054C237833B9044B13B10448AFF38E
:1004D00000800123237010BD805C0020000000001C
:1004E000303B0020084B10B51BB108480849AFF35A
:1004F00000800848036803B910BD074B002BFBD0F0
:10050000BDE81040184700BF00000000303B00204D
:10051000845C0020603B00200000000080B582B0B9
:1005200002AF01F035FF002005214FF480620A235D
:1005300001F06AFF012004214FF480520A2301F0E8
:1005400063FF074801F01EF90823009304480021C7
:100550004FF04072082301F017FABD4680BD00BF7E
:100560001877002080B586B000AF7860396090239E
:100570003B7400237B740023BB740023FB740023B3
:100580003B7500237B751948002101F093FA174849
:1005900001F05CFC1548062101F074FC07F1100322
:1005A00000201946124A062301F098FF07F10803BC
:1005B000012010491A46062301F090FF0B4801F074
:1005C00029FC00BF094801F097FC0346002BF9D035
:1005D0000648002101F0E4FA3A7B7B681A707A7BC6
:1005E0003B681A701837BD4680BD00BF18770020E1
:1005F000141000401010004080B58AB000AFF860C1
:10060000B9607A6003233B74FB681B0CDBB27B741C
:10061000FB681B0ADBB2BB74FB68DBB2FB74002314
:100620003B7500237B7507F110033B627B68063343
:10063000184602F01FFD0346FB61FB69002B44D006
:100640007B680633BB612248002101F033FA00F0D9
:1006500083F91F4801F0FAFBBB699BB21C4819469D
:1006600001F010FC3A6ABB699BB200201146194A9E
:1006700001F034FFFA69BB699BB20120164901F011
:100680002DFF134801F0C6FB00BF114801F034FCF8
:100690000346002BF9D00E48002101F081FA002317
:1006A0007B620BE0BA687B6A13447A6A0432F969A8
:1006B0000A4412781A707B6A01337B627A6A7B681B
:1006C0009A42EFD3F86902F0DDFC2837BD4680BDC1
:1006D00018770020141000401010004080B584B03E
:1006E00002AF06233B711348002101F0E3F900F04B
:1006F00033F93A1D002300930E48114601220023CE
:1007000001F090FA01233B7100237B7100F024F982
:100710003A1D00230093074811460222002301F0EE
:1007200081FA00F019F90348002101F039FA08377D
:10073000BD4680BD1877002080B586B002AF7860D6
:1007400006233B731848002101F0B4F900F004F9C6
:1007500007F10C02002300931348114601220023E5
:1007600001F060FA20233B737B681B0CDBB27B73C8
:100770007B681B0ADBB2BB737B68DBB2FB7300F0E8
:10078000EBF807F10C0200230093074811460422FE
:10079000002301F047FA00F0DFF80348002101F0E0
:1007A000FFF91037BD4680BD1877002080B586B0B0
:1007B00000AFF860B9603B601346FB80FA883B8C61
:1007C00013447B61F86801F041FB7B699BB2F868D8
:1007D000194601F057FBBA68FB88002011460B4A06
:1007E00001F07CFE3A683B8C00201146074A01F07C
:1007F00049FFF86801F00EFB00BFF86801F07CFBD0
:100800000346002BF9D01837BD4680BD14100040B8
:1008100090B58DB002AFF860B9607A604D480021A4
:1008200001F048F906233B7500F096F807F1140231
:1008300000230093474811460122002301F0F2F9FA
:1008400039233B75FB681B0CDBB27B75FB681B0A0D
:10085000DBB2BB75FB68DBB2FB7500F07DF807F11E
:100860001402002300933B4811460422002301F0A8
:10087000D9F906233B7500F06FF807F11402002345
:100880000093344811460122002301F0CBF90023E4
:100890007B627B683B62FB68FB6141E0FB69DBB22A
:1008A000C3F580733B627A687B6AD31ABB61BA690D
:1008B0003B6A9A4201D2BB693B6200F04DF80623C5
:1008C0003B7507F1140200230093224811460122D0
:1008D000002301F0A7F900F03FF802233B75FB6904
:1008E0001B0CDBB27B75FB691B0ADBB2BB75FB69BA
:1008F000DBB2FB75BA687B6AD4183B6A9BB207F11E
:10090000140200931348114604222346FFF74EFFBA
:10091000FA693B6A1344FB617A6A3B6A13447B625F
:100920007A6A7B689A42B9D304233B7500F014F8C5
:1009300007F1140200230093064811460122002308
:1009400001F070F90348002101F02AF92C37BD4667
:1009500090BD00BF1877002090B585B002AF052389
:10096000BB71BA1DFC1D01230093084811460122EA
:10097000234601F057F9FB7903F00103DBB2FB7169
:10098000FB79012BEDD00C37BD4690BD18770020C8
:1009900080B483B000AF0346FB71094997F9073073
:1009A0005B09FA7902F01F02012000FA02F26033BB
:1009B00041F823200C37BD465DF8047B704700BF2B
:1009C00000E100E080B483B000AF78600B46FB70BC
:1009D0007B6803F070427B68C3F313035B0113442D
:1009E000FA789200134403F100731A46012313604E
:1009F0000C37BD465DF8047B704700BF80B483B000
:100A000000AF78600B46FB707B6803F070427B6838
:100A1000C3F313035B011344FA789200134403F108
:100A200000731A46002313600C37BD465DF8047B43
:100A3000704700BF80B483B000AF78600B46FB7096
:100A40007B6803F070427B68C3F313035B011344BC
:100A5000FA789200134403F100731B68DBB2184666
:100A60000C37BD465DF8047B704700BF80B584B08D
:100A700000AFF860B9601346FB71FB68144A9342FB
:100A800004D0FB68134A934200D000BEFB79F8689B
:100A9000B9681A4600F048F9FB681B6830331846FD
:100AA0000321FFF7ABFFFB681B68343318460221B4
:100AB000FFF7A4FFFB681B68383318460021FFF7D7
:100AC0009DFFFB68044A5A621037BD4680BD00BFD7
:100AD0005476002014760020F110002080B489B0F4
:100AE00000AFF860B9607A600023FB61FB682A4AB6
:100AF000934204D0FB68294A934200D000BEBB68F1
:100B0000002B00D100BE7B68002B00D100BEFB682B
:100B1000214A934203D0FB68204A934237D1BB68F5
:100B2000002B34D07B68002B31D0FB681B681B7D09
:100B3000FB74FB685A7BFB7C1343DAB2FB685A7385
:100B4000FB7C03F02003002B1ED010237B617B680D
:100B50000F2B01D87B687B610023BB610CE0FB6835
:100B60001B68B968FA690A4412781A70FB69013384
:100B7000FB61BB690133BB61BA697B699A42EED301
:100B80007A68BB69D31A7B607B68002BCDD1243790
:100B9000BD465DF8047B7047547600201476002033
:100BA000684620F007018D4689B500AF034800F084
:100BB000A7F9BD46BDE889408546704754760020B8
:100BC000684620F007018D4689B500AF034800F064
:100BD00097F9BD46BDE889408546704714760020E8
:100BE00080B588B000AF786039607B684A4A93422C
:100BF00004D07B68494A934200D000BE7B68464AD5
:100C0000934204D07B68454A934240F082807B68DF
:100C10003A689A6002F070F87B683F4A934203D1C9
:100C20003F4B1B68FB6102E03E4B1B68FB61FB69AD
:100C3000DA003B68B2FBF3F3BB61BB695B087B6125
:100C40007B699B093B613B699B017A69D31AFB6015
:100C50003B69DB01BA69D21AFB685B00D31AFA68F8
:100C60001344FB603B69B3F5803F00D300BE3B6992
:100C7000B3F5803F4DD23B69012B2AD97B681B68B5
:100C80000C3318460721FFF79DFE7B681B683A6905
:100C9000120AD2B21A717B681B683A69D2B21A7012
:100CA0007B681B680C3318460721FFF7A7FE7B689B
:100CB0001B68303318460721FFF784FEFB68FF2BC3
:100CC00000D900BE7B681B68FA68D2B283F83C206A
:100CD0001FE07B681B680C3318460721FFF772FE84
:100CE0007B681B683A69120AD2B21A717B681B686A
:100CF0003A69D2B21A707B681B680C331846072118
:100D0000FFF77CFE7B681B68303318460721FFF72E
:100D100075FE2037BD4680BD547600201476002035
:100D2000683B00206C3B002080B584B000AFF860C9
:100D3000B9601346FB71FB686D4A934204D0FB68AF
:100D40006C4A934200D000BEFB68694A934216D1B8
:100D5000FB684FF080421A60FB680A221A71664AEB
:100D6000654B9B6C43F0800393640A20FFF710FEF1
:100D7000614A614B9B6C23F08003936414E0FB6831
:100D80005E4A1A60FB680B221A715B4A5A4B9B6CD5
:100D900043F4807393640B20FFF7FAFD564A564BD9
:100DA0009B6C23F480739364FB681B6800221A71A8
:100DB000FB681B6800221A72FB681B680833184620
:100DC0000121FFF7FFFDFB681B680833184602216D
:100DD000FFF7F8FDFB681B68083318460021FFF792
:100DE000F1FDFB681B68103318460421FFF706FE6F
:100DF000FB681B68103318460521FFF7FFFDFB68F1
:100E00001B68343318460121FFF7F8FDFB681B68A7
:100E1000343318460021FFF7F1FDFB681B683833B7
:100E200018460121FFF7EAFDFB681B6830331846BE
:100E30000521FFF7E3FDFB681B68303318460621E8
:100E4000FFF7DCFDFB681B68303318460721FFF70E
:100E5000D5FDFB681B68383318460321FFF7CEFD2C
:100E6000FB681B68002283F84420FB681B68002293
:100E700083F84820FB681B68002283F84C20F86840
:100E8000B968FFF7ADFEFB681B68FA791A73FB6857
:100E9000BA689A60FB68FA791A73FB6800225A6193
:100EA000FB6800221A61FB6800229A61FB6800223D
:100EB0001A62FB6800225A62FB680022DA61FB6852
:100EC00000229A62FB680022DA62FB6800221A6341
:100ED000FB6800225A63FB6800229A63FB680022C9
:100EE000DA63FB6800225A731037BD4680BD00BF2D
:100EF000547600201476002000800340000001405A
:100F000080B584B000AF78607B68774A934204D0A4
:100F10007B68764A934200D000BE7B68724A934257
:100F200004D07B68714A934240F0DB807B681B6889
:100F30001B7ADBB203F00F03FB73FB7B0C2B00F27D
:100F4000CE8001A252F823F07D0F0020DF10002098
:100F50009B0F0020F50F0020B90F0020DF100020AC
:100F6000D70F0020DF100020DF100020DF1000204E
:100F7000DF100020DF100020B90F00207B689B6A83
:100F8000002B00D100BE7B689B6A002B04D07B68DD
:100F90009B6A78689847A4E0A3E07B685B6A002BB3
:100FA00000D100BE7B685B6A002B04D07B685B6A63
:100FB0007868984795E094E07B681B6A002B00D125
:100FC00000BE7B681B6A002B04D07B681B6A7868B4
:100FD000984786E085E07B68DB69002B00D100BE86
:100FE0007B68DB69002B04D07B68DB6978689847F5
:100FF00077E076E07B681B68283318460021FFF70E
:1010000019FD0346002B0CD07B68DB6A002B00D156
:1010100000BE7B68DB6A002B03D07B68DB6A7868E4
:1010200098477B681B68283318460121FFF702FDAB
:101030000346002B0CD07B681B6B002B00D100BE3D
:101040007B681B6B002B03D07B681B6B7868984711
:101050007B681B68283318460221FFF7EBFC034628
:10106000002B0CD07B685B6B002B00D100BE7B6833
:101070005B6B002B03D07B685B6B786898477B6861
:101080001B68283318460321FFF7D4FC0346002BC6
:101090000CD07B689B6B002B00D100BE7B689B6BE8
:1010A000002B03D07B689B6B786898477B681B6834
:1010B000283318460421FFF7BDFC0346002B0DD052
:1010C0007B68DB6B002B00D100BE7B68DB6B002BE9
:1010D00004D07B68DB6B7868984702E001E000BED3
:1010E00000BF1037BD4680BD547600201476002026
:1010F00080B586B000AF78607B68354A934204D0F3
:101100007B68344A934200D000BE7B681B69002B89
:1011100000D100BE7B685B69002B00D100BE7B68FC
:101120002B4A934203D07B682A4A93424CD17B6876
:101130001B69002B48D07B685B69002B44D07B681F
:101140001B681B7DFB737B685A7BFB7B1343DAB206
:101150007B685A73FB7B03F02003002B24D0102301
:101160003B617B685A697B689B69D31ABB60BB682B
:101170000F2B01D8BB683B6100237B6110E07B68CB
:101180001B687A6811697A6892690A4412781A7041
:101190007B689B695A1C7B689A617B6901337B6120
:1011A0007A693B699A42EAD37B689A697B685B6992
:1011B0009A4209D17B6800225A617B681B6804331C
:1011C00018460121FFF71AFC1837BD4680BD00BF45
:1011D000547600201476002080B582B000AF0F4B0B
:1011E0005B68FB710D4B9B68DAB2FB791340FB71B6
:1011F000FB7903F00203BB71BB79002B01D000F037
:10120000E7F8FB7903F001037B717B79002B01D0B8
:1012100000F006F80837BD4680BD00BF0060014001
:1012200080B584B000AF634B1B78022B3FD0052BF9
:101230006BD0012B40F0AD805F4B1B889BB2002B25
:1012400030D05E4B1A685C4B1B889BB21046194627
:1012500000F006FAF860584B1B889BB21A46FB68F0
:101260009A420FD9544B1B889AB2FB689BB2D31A8F
:101270009AB2514B1A80514B1A68FB6813444F4A7B
:1012800013600EE04C4B00221A804D4B1B68002B64
:1012900003D0484B02221A7003E0464B03221A7017
:1012A00004E003E000BE00F0B5F97FE07EE0444BCF
:1012B0001B68002B24D0434B1A68414B1B68104617
:1012C000194600F0CDF9B8603D4B1B68BA689A42E8
:1012D0000CD23B4B1A68BB68D31A394A1360394B9E
:1012E0001A68BB681344374A13600DE0364A364B20
:1012F0009B6823F0010393602E4B03221A7003E0D6
:1013000000BE00F087F951E050E02D4B1B68002B28
:101310001BD12E4B1B68002B14D02C4B1B6829486B
:1013200098470246264B1A60254B1B68002B0CD1B0
:10133000254A254B9B6823F0010393601D4B032234
:101340001A7002E000BE00F065F91D4B1B68002B0F
:1013500009D11D4A1C4B9B6823F001039360154B78
:1013600003221A7022E0174B1A68154B1B681046AF
:10137000194600F075F97860114B1A687B68D31A2A
:101380000F4A13600F4B1A687B6813440D4A1360B1
:101390000CE00D4A0C4B9B6823F001039360002086
:1013A00000F018F9034B00221A7000BF1037BD4639
:1013B00080BD00BFC15C0020A45C0020A05C0020B8
:1013C000AC5C0020A85C002000600140BC5C0020F8
:1013D00080B584B000AF794B1B69FB81FB8923F496
:1013E000FF4323F07F03BB81FB89FB72744B1B78A7
:1013F000052B00F2D88001A252F823F0151400202A
:1014000091150020911500206D140020BB140020C0
:1014100065150020BB89002B27D0FB7AF12B06D065
:10142000FB7ABB72BB7A184600F04CF91DE0654BA5
:1014300000221A80644B1B68624A128892B21344DD
:10144000FA7A1A705F4B1B889BB201339AB25D4BDC
:101450001A805D4B1B685B4A128892B213440022CB
:101460001A70574B04221A70A4E0A3E0BB89002B2A
:1014700022D0FB7A7B72554B1B78DBB27A7A9A4288
:1014800015D1504B00221A804F4B1B684D4A1288D1
:1014900092B213447A7A1A704A4B1B889BB201337A
:1014A0009AB2484B1A80464B04221A7004E07B7AA9
:1014B000184600F007F97DE07CE0BB89002B06D0E0
:1014C000FB7A3B723B7A184600F0FCF849E03E4B51
:1014D0001A683C4B1B889BB2013B13441B78F12BD1
:1014E00016D1394B1B68374A128892B21344FA7AE4
:1014F0001A70354B1A68334B1B889BB2013B13445F
:101500001B78184600F0DEF82D4B00221A7028E0F8
:101510002C4B1B889AB22E4B1B889A4210D2FB7A16
:10152000FB71294B1B68274A128892B21344FA793F
:101530001A70244B1B889BB201339AB2214B1A803C
:10154000204B1B889AB2224B1B889A4209D11D4B13
:101550001B889BB2184600F03DF8194B00221A7008
:1015600028E027E0BB89002B0BD1174B1B68013308
:10157000FA7A1A70022000F02DF8114B00221A702E
:1015800018E0FB7ABB71BB79184600F09BF811E0BC
:10159000BB89002B06D0FB7A7B717B79184600F063
:1015A00091F807E006E0002000F014F8044B002258
:1015B0001A7000BF1037BD4680BD00BF00600140FB
:1015C000C15C0020B65C0020B05C00209C5C002068
:1015D000B45C002080B582B000AF0346FB800A4BAC
:1015E0001B68002B0DD0084B1B68084A1168FA884D
:1015F000084611469847044B00221A60044B00220B
:101600001A700837BD4680BDB85C0020B05C002071
:10161000C05C002080B582B000AF0E4B1B78DBB2FF
:10162000002B13D00C4B1B889BB21846FFF7D2FF40
:101630000A4A0A4B1B6843F001031360074B1B68FF
:1016400003F001037B607B68002BF7D10837BD46B0
:1016500080BD00BFC05C0020B65C0020006001407F
:1016600080B485B000AF78603960154A144B1B68B0
:1016700023F0040313600023FB60114B5B6803F04D
:101680000103BB600DE00E497A68FB6813441B78C8
:101690000B61FB680133FB60094B5B6803F00103DE
:1016A000BB60BB68002B03D0FA683B689A42EAD360
:1016B000FB6818461437BD465DF8047B704700BFD1
:1016C0000060014080B582B000AF0346FB71064B5D
:1016D0001B68002B04D0044B1B68FA79104698470E
:1016E0000837BD4680BD00BFC45C002080B483B015
:1016F00000AF0346FB71084997F907305B09FA7997
:1017000002F01F02012000FA02F241F823200C37F8
:10171000BD465DF8047B704700E100E080B483B013
:1017200000AF0346FB71094997F907305B09FA7965
:1017300002F01F02012000FA02F2203341F82320B8
:101740000C37BD465DF8047B704700BF00E100E048
:1017500080B483B000AF0346FB71094997F90730A5
:101760005B09FA7902F01F02012000FA02F26033ED
:1017700041F823200C37BD465DF8047B704700BF5D
:1017800000E100E080B584B000AF78607B68304A4B
:10179000934204D07B682F4A934200D000BE7B68FE
:1017A0001B795BB21846FFF7B9FF786800218422E5
:1017B00001F06CFF7B6801225A620023FB810AE082
:1017C000FB897A680633DB0013444FF0FF325A601E
:1017D000FB890133FB81FB89072BF1D97B681C4A0C
:1017E000934215D17B681C4A1A607B6802221A71E9
:1017F0001A4A1A4B9B6C43F4007393640220FFF760
:10180000A7FF164A154B9B6C23F40073936414E0F6
:101810007B68134A1A607B6803221A710F4A0F4BC8
:101820009B6C43F4806393640320FFF791FF0B4AA2
:101830000A4B9B6C23F4806393647B681B687A6813
:101840001268126822F000421A601037BD4680BD4F
:10185000187700209476002000100040008003409C
:101860000010014080B58AB000AF78607B681B68CB
:101870001B687B627B681B689B693B627B681B689B
:101880005B68FB617B681B689B6ABB617B681B684C
:101890001B6B7B617B681B685B6B3B617B681B68B8
:1018A000DB69FB607B68344A93421DD17B68334A15
:1018B0001A607B6802221A71314A314B9B6C43F4E7
:1018C000007393640220FFF743FF2D4A2C4B9B6C5F
:1018D00023F4007393647B681B687A68126812684B
:1018E00022F000421A601CE07B68264A1A607B687E
:1018F00003221A71224A224B9B6C43F48063936447
:101900000320FFF725FF1E4A1D4B9B6C23F48063C9
:1019100093647B681B687A681268126822F0004240
:101920001A607B6A23F001037B627B681B687A6A1A
:101930001A607B681B683A6A9A617B681B68FA695F
:101940005A607B681B687A681268126842F001026C
:101950001A607B681B68BA699A627B681B687A693F
:101960001A637B681B683A695A637B681B68FA686C
:10197000DA612837BD4680BD18770020001000408E
:10198000008003400010014080B586B000AFF860D1
:101990007A603B600B46FB72FB68444A934204D07A
:1019A000FB68434A934200D000BEFB7A072B00D964
:1019B00000BE97F82030202B00D900BE3B68012BD9
:1019C00000D800BE3B68B3F5007F00D900BE3B687D
:1019D00003F00103002B00D000BEFB681B795BB253
:1019E0001846FFF79BFEFB68002283F88020FB6807
:1019F0001B68FA681268126822F001021A60FB681C
:101A00001B68FA681268126842F002021A60FB68EA
:101A10001B68FA681268126842F001021A60FB7AC9
:101A2000072B3AD87B68002B0BD07B68B3F1007F83
:101A300007D07B68B3F1807F03D07B68B3F1407F30
:101A40000BD1FB7A7A6842F0505242F48172F96805
:101A50000633DB000B445A600AE0FB7A7A6842F0F6
:101A6000405242F48172F9680633DB000B445A603D
:101A7000FB7AFA680633DB00134497F820201A72C9
:101A80003B685B08013B7B61FB7A7A69D1B2FA68FB
:101A90000633DB0013440A465A72FB681B795BB2BB
:101AA0001846FFF723FE1837BD4680BD1877002083
:101AB0009476002080B584B000AF78600B46FB7050
:101AC0007B68354A934204D07B68344A934200D005
:101AD00000BE7B681B681B6803F00203002B00D16B
:101AE00000BEFB787A680633DB0013445B68B3F111
:101AF000FF3F00D100BE7B681B795BB21846FFF741
:101B00000DFE7B681B689B6803F00403FB60FB68A9
:101B1000002B02D07868FFF7A5FE7B681B687A6807
:101B20001268126822F001021A607B681A68FB785A
:101B300079680633DB000B445B6813607B681A68C6
:101B4000FB7879680633DB000B445B7A93617B6832
:101B50001A68FB7879680633DB000B441B7A536004
:101B60007B681B687A681268126842F001021A608A
:101B70007B681B687A681268D169FA78012000FADC
:101B800002F20A43DA617B681B795BB21846FFF701
:101B9000ADFD1037BD4680BD18770020947600203B
:101BA00080B584B000AF78600B46FB707B681B4A41
:101BB000934204D07B681A4A934200D000BE7B68EF
:101BC0001B681B6803F00203002B00D100BE7B687A
:101BD0001B795BB21846FFF7A1FD7B681B689B6809
:101BE00003F00403FB60FB68002B02D07868FFF76A
:101BF00039FE7B681B687A681268D169FA7801201F
:101C000000FA02F2D2430A40DA617B681B795BB2C8
:101C10001846FFF76BFD1037BD4680BD18770020D2
:101C20009476002080B58EB000AFF860B9603B605C
:101C30001346FB800023FB8600237B85FB68734AE9
:101C4000934204D0FB68724A934200D000BEFB6806
:101C50001B681B6803F00203002B00D100BEFA884A
:101C6000B7F8403013447B847B8C002B02D10123D6
:101C7000FB6201E07B8CFB62FB681B68FA68126800
:101C8000D26A42F00C02DA62FB681B689B6803F0C0
:101C90000403FB61FB69002B02D0F868FFF7E2FD4B
:101CA000FB681B68FA681268126822F001021A6069
:101CB000FB681968FB681B681B6823F47F0222F429
:101CC0007F42FB6A1B0223F07F4323F0FF03134391
:101CD0000B60FB681B6808225A60FB681B68FA6887
:101CE0001268126842F001021A60FB681B689B6868
:101CF00003F040037B6209E0FB681B681B697B61A2
:101D0000FB681B689B6803F040037B627B6A002BC7
:101D1000F2D00023BB8600237B86BA8EFB889A42D2
:101D20000DD2FB681B68BA8EB9680A4412785A61F2
:101D3000BB8E0133BB867B8D01337B850DE0BA8E74
:101D40007B8C9A4209D2FB681B6800225A61BB8EC9
:101D50000133BB867B8D01337B8550E0FB681B68BC
:101D60009B6803F040037B627B6A002B1BD1FB68FE
:101D70001B681B697B61FA8EFB889A420DD37A8EB1
:101D8000B7F840309A4205D27B8E3A6813447A699C
:101D9000D2B21A707B8E01337B86FB8E0133FB86B9
:101DA0007B8D013B7B85FB681B689B6803F480731C
:101DB000BB61BB69002B22D17B8D032B1FD8BA8E50
:101DC000FB889A420DD2FB681B68BA8EB9680A4438
:101DD00012785A61BB8E0133BB867B8D01337B85C4
:101DE0000DE0BA8E7B8C9A4209D2FB681B680022F8
:101DF0005A61BB8E0133BB867B8D01337B85FA8EA6
:101E00007B8C9A42AAD33837BD4680BD1877002014
:101E10009476002080B582B000AF78607B681B7933
:101E20005BB21846FFF77AFC7B681B687A68126819
:101E3000126842F001021A607B681B795BB2184697
:101E4000FFF754FC0837BD4680BD00BF80B582B0A7
:101E500000AF78607B681B795BB21846FFF75EFCC9
:101E60007B681B687A681268126822F001021A60A7
:101E70007B681B795BB21846FFF738FC0837BD4614
:101E800080BD00BF80B582B000AF78600B467B801C
:101E90007B681B795BB21846FFF740FC7B681968CA
:101EA0007B681B681B6823F47F0222F47F427B88D7
:101EB0001B0223F07F4323F0FF0313430B607B6877
:101EC0001B687A681268126822F001021A607B6847
:101ED0001B6808225A607B681B687A68126812685F
:101EE00042F001021A607B681B795BB21846FFF76B
:101EF000FDFB0837BD4680BD80B485B000AF78607B
:101F00007B681B689B6803F00103FB60FB68184655
:101F10001437BD465DF8047B704700BF80B485B0C0
:101F200000AF78600023FB600DE07B681B687A6877
:101F300091687A6812690A4412785A617B681B6951
:101F40005A1C7B681A617B681B689B6803F480736A
:101F5000002B05D17B681A697B68DB689A42E4D361
:101F60007B681A697B68DB689A421BD30DE07B684B
:101F70001B687A6851697A68D2690A4412785A6192
:101F80007B68DB695A1C7B68DA617B681B689B682D
:101F900003F48073002B05D17B68DA697B689B6949
:101FA0009A42E4D37B685B6A002B1DD07B681A6978
:101FB0007B68DB689A4217D37B68DA697B689B6928
:101FC0009A4211D306E07B681B6800225A61FB68C5
:101FD0000133FB607B681B689B6803F48073002BF4
:101FE00002D1FB681F2BEED91437BD465DF8047B88
:101FF000704700BF80B584B000AF78607B6893F80D
:102000008030022B15D10CE07B681B681B69FB60DC
:102010007B685B6F002B04D07B685B6FFA681046AF
:1020200098477B681B689B6803F04003002BEBD04C
:1020300030E07B6893F88030012B1FD116E07B687D
:102040001B681B69FB607B681A6B7B68DB6A9A42C2
:1020500007D27B689A6A7B681B6B1344FA68D2B21A
:102060001A707B681B6B5A1C7B681A637B681B6841
:102070009B6803F04003002BE1D00BE003E07B689A
:102080001B681B69FB607B681B689B6803F040034F
:10209000002BF4D01037BD4680BD00BF80B586B0A0
:1020A00000AF78607B681B6820337B617B686C4A7B
:1020B000934204D07B686B4A934200D000BE7B6998
:1020C0001B6803F00203002B4FD07B6893F880302D
:1020D000022B15D10CE07B681B681B69FB607B68D9
:1020E0005B6F002B04D07B685B6FFA6810469847E3
:1020F0007B681B689B6803F04003002BEBD030E04B
:102100007B6893F88030012B1FD116E07B681B6839
:102110001B69FB607B681A6B7B68DB6A9A4207D29B
:102120007B689A6A7B681B6B1344FA68D2B21A7098
:102130007B681B6B5A1C7B681A637B681B689B68F7
:1021400003F04003002BE1D00BE003E07B681B6849
:102150001B69FB607B681B689B6803F04003002BD6
:10216000F4D07B681B680222DA607B691B6803F08D
:102170000103002B11D07B6893F88030022B05D12E
:102180007B681B687A68926F5A6102E07868FFF793
:10219000C5FE7B681B680122DA607B691B6803F05F
:1021A0001003002B21D07868FFF724FF7B681B6A9F
:1021B000002B0BD07B681B6A7A68916A7A68126B75
:1021C0000846114698477868FFF7A8FE7B68012209
:1021D0005A627B681B687A681268926A22F0100261
:1021E0009A627B681B681022DA607B691B6803F0C7
:1021F0000403002B0ED07B681B687A681268D26AD1
:1022000042F00402DA627868FFF72CFB7B681B68F7
:102210000422DA607B691B6803F00803002B32D0CC
:102220007B681B687A681268D26A42F00802DA6238
:102230007B6893F88030022B16D17B681A687B6824
:102240001B681B6823F47F0323F47F4343F48073EC
:1022500013607B681B687A68926F5A610FE000BF59
:1022600018770020947600207B6893F88030012B4B
:1022700005D17B6800221A617868FFF74FFE7B6802
:102280001B680822DA607B691B6803F02003002BBF
:1022900041D07868FFF7AEFE7B681B6B3B617B68C3
:1022A0001B6A002B17D07B6800225A627B680022D1
:1022B0005A617B6800229A617B680022DA617B6840
:1022C0001B681022DA607B681B687A681268926A61
:1022D00042F010029A627B6800221A617B681B68D8
:1022E0007A681268D26A42F00C02DA627868FFF704
:1022F00015FE7B6800221A637B68DB6F002B06D01B
:102300007B68DB6F7A68926A1046396998477B6808
:102310001B682022DA601837BD4680BD684620F071
:1023200007018D4689B500AF0348FFF7B7FEBD46EC
:10233000BDE889408546704718770020684620F040
:1023400007018D4689B500AF0348FFF7A7FEBD46DC
:10235000BDE88940854670479476002080B483B0FC
:1023600000AF0346FB71094997F907305B09FA7919
:1023700002F01F02012000FA02F2603341F823202C
:102380000C37BD465DF8047B704700BF00E100E0FC
:1023900080B582B000AF174A164B9B6C43F0200308
:1023A00093640D20FFF7DAFF124A124B9B6C23F067
:1023B0002003936400237B6016E00F4A7B6813447C
:1023C00000221A700D4A7B68134400221A700C4ACE
:1023D0007B68134400221A700A4A7B68002142F885
:1023E00023107B6801337B607B68072BE5DD0837B2
:1023F000BD4680BD00800340C85C0020D05C00204A
:10240000D85C0020E05C002080B596B000AF3A6058
:102410001A460346FB710B46BB7113467B712D4A6E
:1024200007F1080311465022184601F0B9F82A496D
:10243000FB792948FA79013252010244126842F0CC
:10244000200201335B010B441A602349FB792248C7
:10245000FA79013252010244126822F0200201335B
:102460005B010B441A60BB79142B13D01A48F9791D
:10247000194AFB7901335B0113441A68BB799B004D
:1024800007F1580E734453F8503C1A434B1C5B0140
:1024900003441A601048FB790F49FA79013252015E
:1024A0000A4411683A680A4301335B0103441A6025
:1024B0000948FB790849FA79013252010A44116846
:1024C0007A7992030A4301335B0103441A60583757
:1024D000BD4680BD903A00200030004080B584B0F9
:1024E00000AFB9607A601A460346FB731346BB819E
:1024F000FA7BBB891046B9687A6800F013F808497E
:10250000FB7B0748FA7B013252010244126822F039
:10251000100201335B010B441A601037BD4680BDC9
:102520000030004080B485B000AFB9607A601A46D0
:102530000346FB731346BB814E49FB7B4D48FA7B38
:10254000013252010244126842F0100201335B0171
:102550000B441A60474AFB7B01335B0113445B6801
:1025600003F00103002B11D04249FB7B4148FA7B69
:10257000013252010244126842F0800201335B01D1
:102580000B441A60FB7B3C4A0021D154394AFB7B47
:1025900001335B0113445B6803F00203002B11D08D
:1025A0003449FB7B3348FA7B013252010244126802
:1025B00042F4807201335B010B441A60FB7B2F4AAB
:1025C0000021D1542B4AFB7B01335B0113445B6830
:1025D00003F00403002B1DD0FB7B294A0021D154BA
:1025E000FB7B264A0121D154224AFB7B5B01134429
:1025F0003033BA685A601F4AFB7B5B01134438339F
:102600007A681A601B49FB7BBA895B010B4438333B
:102610005A601CE0FB7B1A4A0121D154FB7B164A0D
:102620000121D154134AFB7B5B0113442833BA6860
:102630001A60104AFB7B5B01134428337A685A60A6
:102640000C49FB7BBA895B010B4430331A600949A2
:10265000FB7B0848FA7B013252010244126822F0E7
:10266000100201335B010B441A601437BD465DF85C
:10267000047B704700300040D05C0020D85C002014
:10268000C85C002080B489B000AFB9607A601A4697
:102690000346FB731346BB81FB7B434AD35C002B91
:1026A0003ED1FB7B414AD35C012B1BD1FB7B5B0002
:1026B0001A4601239340FB613D4B5A68FB69134066
:1026C000BB61BB69002BF7D03949FB7B3848FA7BEB
:1026D000013252010244126842F0800201335B0170
:1026E0000B441A60324AFB7B5B0113442833BA68FF
:1026F0001A602F4AFB7B5B01134428337A685A60C7
:102700002B49FB7BBA895B010B4430331A60FB7B9E
:10271000254A0121D154FB7B244A0121D1543EE0BA
:10272000FB7B244AD35C012B1CD1FB7B5B00013378
:102730001A46012393407B611D4B5A687B69134005
:102740003B613B69002BF7D01949FB7B1848FA7BAA
:10275000013252010244126842F4807201335B017B
:102760000B441A60124AFB7B5B0113443033BA6896
:102770005A600F4AFB7B5B01134438337A681A6056
:102780000B49FB7BBA895B010B4438335A60FB7BF6
:10279000054A0021D154FB7B064A0121D15424373C
:1027A000BD465DF8047B7047C85C0020D05C00200B
:1027B00000300040D85C002080B485B000AF0346F4
:1027C000FB800023FB73FB8803F00303002B02D084
:1027D0000023FB7338E0FB8803F00C03002B02D0CE
:1027E0000123FB7330E0FB8803F03003002B02D0A1
:1027F0000223FB7328E0FB8803F0C003002B02D008
:102800000323FB7320E0FB8803F44073002B02D00A
:102810000423FB7318E0FB8803F44063002B02D011
:102820000523FB7310E0FB8803F44053002B02D018
:102830000623FB7308E0FB8803F44043002B02D01F
:102840000723FB7300E000BEFB7B18461437BD4630
:102850005DF8047B704700BF684620F007018D4695
:1028600091B586B000AF184B3C1D186859689A683E
:10287000DB680FC4154B5B68FB82FB8A1846FFF7C9
:102880009BFF03467B757B7D5B0007F118021344B9
:1028900033F8143CDB439AB2FB8A1340FB827B7D06
:1028A0000B4A52F82330002B04D07B7D084A52F8A3
:1028B00023309847FB8A002BDFD11837BD46BDE88F
:1028C00091408546704700BFE03A0020003000404C
:1028D000E05C002090B484B000AFF860B9607A602A
:1028E000FB704B484B4B1A68F97813469B00134416
:1028F000DB01034403F5E07359604749454B1A680F
:1029000013469B0013449B000B44FA685A604249EB
:10291000404B1A6813469B0013449B000B44BA6853
:102920009A603D483B4B19683B4C3A4B1A6813463A
:102930009B0013449B00234408335B681A0C120469
:102940000B469B000B449B00034408335A607B6892
:10295000B3F5803F0FD97B68A3F580332F4A13610D
:10296000BB6803F580332D4AD360FB6803F58033E1
:102970002A4A936019E02848264B1A68264C254BB2
:1029800019680B469B000B449B00234408335B688B
:10299000796889B2194313469B0013449B00034492
:1029A000083359601D4B00221A611B48194B1A68E5
:1029B000194C184B19680B469B000B449B00234491
:1029C00008335B6843F4E00113469B0013449B000B
:1029D0000344083359600E490E4B1A6813469B0096
:1029E0001344DB010B4403F5E07301221A6008492C
:1029F000084B1A6813469B001344DB010B4403F594
:102A0000E47300225A601037BD4690BC704700BF87
:102A100000002842185D002000400140005D0020B9
:102A2000684620F007018D4691B500AF344A354B1A
:102A30001B6803F52873012142F823103248314BFB
:102A40001A68314C2F4B19680B469B000B449B00B6
:102A5000234408335B6823F4E00113469B001344CE
:102A60009B00034408335960264B1B680133254AF9
:102A70001360244B1B68042B02D1224B00221A60E6
:102A8000224B1B69002B17D0214B1B68042B03D151
:102A90001F4B00221A6004E01D4B1B6801331C4AC7
:102AA00013601A4B9868194BD968184B1A69174B61
:102AB0001B7DFFF70FFF1EE01349124B1A681346E8
:102AC0009B0013449B000B4408335B6803F4E00352
:102AD000002B10D10B4B00221A600D4B00221A6004
:102AE0000A4B01221A70094B5B68002B03D0074B7D
:102AF0005B6801209847BD46BDE891408546704718
:102B0000000028421C5D002000400140005D0020C4
:102B1000185D0020684620F007018D4681B583B01E
:102B200000AF384B1B683B603B6803F470633B604D
:102B30003B68002B2FD03449344B1A6813469B0056
:102B40001344DB010B4403F502731B68002B0AD00E
:102B50002F4B02221A702E4B5B68002B03D02C4B9C
:102B60005B68022098472849284B1A6813469B0047
:102B70001344DB010B4403F502735B68002B0AD09E
:102B8000234B03221A70224B5B68002B03D0204B8F
:102B90005B68032098471B4B1B683B603B6803F452
:102BA00070433B603B68002B0AD0194B04221A701B
:102BB000174B5B68002B03D0154B5B6804209847CC
:102BC00000237B6014E010497A6813469B0013448D
:102BD000DB010B4403F5E47301221A600A4A7B68A7
:102BE00003F52873012142F823107B6801337B60D1
:102BF0007B68032BE7D90C37BD46BDE8814085468D
:102C0000704700BF00400140000028421C5D0020CA
:102C1000005D002080B483B000AF7860FEE700BFA5
:102C200080B485B000AFF860B9607A603B60002383
:102C300018461437BD465DF8047B704780B586B0F2
:102C400000AF78601F4B1B68002B02D11D4B1E4A42
:102C50001A601C4B1B687B61EFF308833B61194BC7
:102C60001A683B699A420FD2164B1A687B681A445D
:102C70003B699A421AD900200121144A1923FFF70F
:102C8000CFFF0120FFF7C6FF114BFB600D4B1A6809
:102C90007B681A44FB689A4208D9002001210D4A3A
:102CA0001923FFF7BDFF0120FFF7B4FF054B1A689A
:102CB0007B681344034A13607B6918461837BD4686
:102CC00080BD00BF205D0020A0770020F03A0020EA
:102CD00000F000200C3B002080B500AF00F0F6F8BB
:102CE000044A044B5B6943F400735361FDF7A2FB94
:102CF00080BD00BF00ED00E080B588B000AF2F4B75
:102D0000D3F8983003F08063FB61FB69002B4BD153
:102D10002A4BD3F8983003F48053BB61BB69002B76
:102D200015D1274B274A1A60274B264A1A60274B92
:102D3000244A1A60264B274A1A60274B214A1A60F8
:102D4000264B204A1A60264B1E4A1A602BE0254A61
:102D50003B1D1068516803C3184BD3F89C309B0986
:102D600003F007037B613A1D7B6913441B78FB74F6
:102D7000FB7C012B0AD0022B0DD0002B0FD100F0D1
:102D800035F8F860F86800F04FF80CE04FF40040B8
:102D900000F04AF807E0144800F046F803E0124853
:102DA00000F042F800BF05E000F020F8F860F86895
:102DB00000F03AF82037BD4680BD00BF00800340D8
:102DC000643B002000E1F505683B00206C3B0020DF
:102DD000703B002040787D01743B0020783B002050
:102DE0007C3B0020203B002040420F0080B483B099
:102DF00000AF0A4BD3F8503103F004033B603B684B
:102E0000002B02D1064B7B6001E0064B7B607B68A8
:102E100018460C37BD465DF8047B704700800340C0
:102E200040787D0180F0FA0280B483B000AF786012
:102E30000C4A7B6813600C4A7B6813600B4A7B6802
:102E400013600B4B0B4A1A600B4A7B6813600B4AEA
:102E50007B6813600A4A7B6813600C37BD465DF8D7
:102E6000047B7047643B0020683B00206C3B0020E3
:102E7000703B002040787D01743B0020783B0020AF
:102E80007C3B002080B483B000AF0E4BD3F84C31B4
:102E90003B603B684FF60202934203D00A4A9342DA
:102EA00003D005E001237B6005E002237B6002E0A4
:102EB00000237B6000BF7B6818460C37BD465DF879
:102EC000047B70470080034002F8010080B582B0A7
:102ED00000AFFFF7D7FF78607B68012B00D002E0DE
:102EE00000F004F800BF0837BD4680BD80B400AFD5
:102EF000094A094BD3F8983043F48073C2F89830EC
:102F0000054A054BD3F8983023F08063C2F8983017
:102F1000BD465DF8047B70470080034080B584B0F7
:102F200000AF0023BB600023FB600023FB71002384
:102F3000BB71234B0022DA66224B18464FF46141E5
:102F40000322FDF793FDFDF7E9FAFDF7C7FB4FF00C
:102F50005D60FDF7F1FB4FF05E60FDF7EDFBFA1DE4
:102F6000BB1D10461946FDF7FDFAFB79EF2B02D188
:102F7000BB79162B02D0BB680133BB604FF05D6399
:102F8000FB60F868104941F6BC02FDF741FC4FF0C8
:102F90005D63FB60F8680D4941F6BC02FDF72CFB50
:102FA0000A48094941F6BC0200F012F80346BB602A
:102FB000044B1846054941F6BC02FDF78FFDFEE7BC
:102FC0000080034054760020803B0020245D0020D8
:102FD00080B487B000AFF860B9601346FB8000236F
:102FE000FB750023BB8212E0BB8AFA6813441A788F
:102FF000BB8AB9680B441B789A4202D00123FB7547
:1030000008E0BB8A0133BB82FB88013BFB80FB8865
:10301000002BE9D1FB7D18461C37BD465DF8047BCB
:10302000704700BF70B50F4E0F4D761BB61018BF1E
:10303000002405D0013455F8043B9847A642F9D145
:103040000A4E0B4D00F074FD761BB61018BF00241D
:1030500006D0013455F8043B9847A642F9D170BD1B
:1030600070BD00BF483B0020483B0020503B002083
:10307000483B0020024B0146186800F00BB800BF27
:1030800068580020024B0146186800F0D7BB00BF0B
:10309000685800202DE9F04F01F10B05162D83B083
:1030A000064627D935F0070500F1B680A94200F29F
:1030B000B38000F039FBB5F5FC7F22D2BC4FE808A5
:1030C00007EBC003DC689C4200F0BC816368E168E8
:1030D00023F0030323445A68A56842F00102E96023
:1030E00030468D605A6000F021FB0834204603B062
:1030F000BDE8F08F102900F28F8000F015FB10253D
:10310000DCE7680A00F08F80042800F24781A809F4
:1031100038304100A64F07EB8101CC68A14206D1AF
:103120000CE0002A80F28280E468A14206D0636845
:1031300023F003035A1B0F2AF3DD013801309C49A9
:103140003C6901F1080E744500F07181636823F059
:1031500003035A1B0F2A00F35781002AC1F814E019
:10316000C1F810E066DAB3F5007F80F02D81DB084E
:1031700001EBC3084FEAA30C4A68012303FA0CF3DE
:10318000D8F808C01343C4F808C0C4F80C804B60DA
:10319000C8F80840CCF80C408210012494409C42AE
:1031A00055D8234206D120F003006400234200F1E9
:1031B0000400FAD007EBC008C4468146DCF80C30A6
:1031C0009C4507D135E1002980F24581DB689C45AB
:1031D00000F02F815A6822F00302511B0F29F2DD03
:1031E0001C46DA6854F808CF45F0010941F001089F
:1031F0001D44C3F804903046CCF80C20C2F808C037
:103200007D613D61C5F80CE0C5F808E0C5F80480B3
:10321000695000F08BFA69E7002420460C233360E4
:1032200003B0BDE8F08F7E213F2073E723445A6846
:10323000E16851E723445A68304642F001025A607F
:10324000083400F073FA204603B0BDE8F08FBC6884
:10325000636823F00308454504D8C5EB08030F2B2A
:1032600000F38C80534BDFF85CA11A68DAF8003069
:103270002A44013304EB080B00F0518102F580521F
:103280000F3222F47F6222F00F0211463046019283
:1032900000F04EFAB0F1FF3F8146019A00F04881FC
:1032A000834500F2EF80444BCB4519681144196007
:1032B00000F04381DAF80000DFF808E101301BBFBD
:1032C000CBEB090B5944CEF80090196019F00701B7
:1032D00000F00881C1F10800C1F580518144083136
:1032E0004A44C2F30B02C2EB010A51463046019335
:1032F00000F01EFA431C019B00F02D81C9EB000277
:10330000524442F001021968BC425144C7F8089087
:103310001960C9F80420DFF8A0A016D0B8F10F0F8B
:1033200040F2EF806268A8F10C0323F0070302F07B
:103330000102E0184FF0050E1A430F2B6260C0F82F
:1033400004E0C0F808E000F20A811C4BBC681A686F
:10335000914288BF19601A4B1A689142626888BF0F
:10336000196022F003029542A2EB050301D80F2B4E
:1033700004DC304600F0DAF90024B7E645F001023B
:1033800043F00103254462603046BD6008346B6041
:1033900000F0CCF9204603B0BDE8F08F142869D9BD
:1033A000542800F29880280B6E304100B2E600BF2E
:1033B0006C580020E8750020EC750020E4750020B2
:1033C000E0750020785C00205A0A042A55D9142A96
:1033D00000F2A7805B324FEA420C07EB8C0CDCF862
:1033E0000810DFF8B88161457FD04A6822F00302F7
:1033F000934202D289688C45F7D1CA687B68E26043
:10340000A1609460CC60C7E645F0010742F001037B
:103410002544676030464D610D61C5F80CE0C5F884
:1034200008E06B60AA50083400F080F95EE64B6853
:10343000B2E609F1010919F0030F0CF1080C7FF451
:10344000BDAE2CE004F108036469A34208BF02305A
:103450003FF475AE3AE61C461A445168DB6854F8EE
:10346000085F41F0010151603046EB609D6000F063
:103470005DF93BE65B3041004CE69A0938324FEA91
:10348000420CAAE7BC42454B3FF40DAF9C68626812
:1034900022F0030267E7D8F8008098457CD110F04D
:1034A000030FA8F1080300F1FF30F4D17B6823EA91
:1034B00004037B6064009C423FF6C9AE002C3FF4DD
:1034C000C6AE234248467FF475AE6400234200F145
:1034D0000400FAD06EE6B0F5AA7F18D8E80B773072
:1034E000410017E64FF48051FAE6D8F80430921004
:1034F0004FF0010C0CFA02F21343C8F804300A46EC
:103500007DE70123C9F804304C4600222BE740F246
:10351000545398421CD8A80C7C304100FAE5103274
:10352000B3E6542A23D81A0B6E324FEA420C54E702
:10353000BC68626822F0030215E7CBF30B00002899
:103540007FF4B8AE4244BB6842F001025A60FCE628
:10355000FC217E20DEE501224FF0000AD3E604F1D3
:103560000801304600F06AF9DAF80010EDE6B2F52D
:10357000AA7F04D8DA0B77324FEA420C2DE740F2EB
:1035800054518A4204D89A0C7C324FEA420C24E708
:103590004FF0FC0C7E2220E77B688BE76C58002004
:1035A000844641EA000313F0030349D1403A23D390
:1035B0000B6803604B6843608B688360CB68C360B3
:1035C0000B6903614B6943618B698361CB69C3619B
:1035D0000B6A03624B6A43628B6A8362CB6AC36283
:1035E0000B6B03634B6B43638B6B8363CB6BC3636B
:1035F00040304031403ADBD230320BD30B680360AD
:103600004B6843608B688360CB68C36010301031B7
:10361000103AF3D20C3205D351F8043B40F8043B86
:10362000043AF9D2043208D0D2071CBF11F8013B8A
:1036300000F8013B01D30B8803806046704700BF50
:10364000082A13D38B07B1D010F00303AED0C3F117
:103650000403D21ADB071CBF11F8013B00F8013B41
:10366000A4D331F8023B20F8023B9FE7043AD9D3B8
:10367000013A11F8013B00F8013BF9D20B780370D5
:103680004B7843708B7883706046704770B48407C2
:1036900046D0541E002A41D0CDB2034602E0621E3D
:1036A000E4B3144603F8015B9A07F8D1032C2ED932
:1036B000CDB245EA05250F2C45EA054519D9264620
:1036C00003F11002103E0F2E42F8105C42F80C5C21
:1036D00042F8085C42F8045C02F11002F2D8A4F14E
:1036E000100222F00F0204F00F041032032C1344D6
:1036F0000DD91E462246043A032A46F8045BFAD83E
:10370000221F22F003020432134404F003042CB1FC
:10371000C9B21C4403F8011BA342FBD170BC704723
:1037200014460346C2E700BF704700BF704700BFA2
:1037300038B5074C0023054608462360FFF77EFA9C
:10374000431C00D038BD2368002BFBD02B6038BD54
:103750009C770020024B13B1024800F005B8704777
:103760000000000075370020014600200246034695
:1037700000F03CB938B5084B084DED1AAC1018BF35
:10378000ED1805D0013C55F8043D9847002CF9D1BF
:10379000BDE8384000F0D2B9503B0020543B002037
:1037A000F8B50C46224F0646FFF7BEFFBB685D68C2
:1037B00025F00305291B01F6EF7121F47F6121F04B
:1037C0000F01A1F58054B4F5805F07DB304600217E
:1037D000FFF7AEFFBB682B44984204D03046FFF79A
:1037E000A5FF0020F8BD30466142FFF7A1FF013080
:1037F0000DD0104BBA6819682D1B45F001053046F5
:10380000091B55601960FFF791FF0120F8BD304694
:103810000021FFF78DFFBA68831A0F2BDEDD064CFF
:103820000449246843F00103001B53600860D5E796
:103830006C580020EC750020785C002000294ED0E8
:103840002DE9F0410C468046FFF76EFF54F8047CEA
:103850006249A4F1080527F00102AB188E68586888
:103860009E4220F003005AD0FE0758600BD454F853
:10387000087C01F1080EED1BAC683A44744567D032
:10388000EF68E760BC601C186468E4070CD4544F10
:103890009C680244BC427CD0D86842F00103E060DE
:1038A00084606B60AA5003E042F001036B60AA5091
:1038B000B2F5007F14D2D20801EBC203012448689C
:1038C000921004FA02F29C681043AC60EB6048600E
:1038D0009D60E5604046BDE8F041FFF727BF7047B7
:1038E000530A042B47D8930903F13804600001EB15
:1038F000800083683949834243D0596821F003012D
:10390000914202D99B689842F7D1DA68EA60AB60CD
:1039100040469560DD60BDE8F041FFF707BFFF0757
:10392000024407D454F8084C2D1BEB68A8682244C5
:10393000C36098602B4B42F001001B6868609A429C
:103940008D60C7D3284B40461968FFF729FFC1E7B0
:1039500019184968C90709D4D96802449B6842F01C
:103960000100D9608B606860AA50B3E742F00103A0
:103970006B60AA50AEE7142B14D803F15B0460000F
:10398000B5E74A68A4100120A04002434A601A46E5
:10399000BCE742F001034D610D61EC60AC606B600F
:1039A000AA5097E7542B04D8130B03F16E04600060
:1039B0009DE7B3F5AA7F04D8D30B03F17704600029
:1039C00095E740F25450834204D8930C03F17C04F1
:1039D00060008CE7FC207E2489E700BF6C58002043
:1039E00074580020745C0020E87500202DE9F04731
:1039F000254C064625688846D5F8484192469946A2
:103A0000C4B360681F2817DC411C76B104EB800347
:103A1000C3F888A0D4F88851012282401543022EB1
:103A2000C4F88851C3F808911ED0831C616000203F
:103A300044F82380BDE8F087144B03B34FF4C870FB
:103A4000FFF718FB0446D0B1D5F84831002784E8C9
:103A500088003846C5F848410121C4F88871C4F887
:103A60008C71002EE1D0D1E7D4F88C311A43C4F820
:103A70008C21DAE705F5A674C5F84841C1E74FF097
:103A8000FF30BDE8F08700BF2C3B002075300020E0
:103A9000010000000300800001000001030080011C
:103AA0000100000203008002010000030300800304
:103AB00001000004030000040100800403008004EE
:103AC0000300000501008005010000060300000658
:103AD0000100800603008006010000070300800744
:103AE00003000C003000C0000003000C003000C0D8
:103AF0004865617020616E6420737461636B20633C
:103B00006F6C6C6973696F6E0A0000004F757420EA
:103B10006F662068656170206D656D6F72790A004F
:103B20000001000102020303430000004054002092
:103B3000F8B500BFF8BC08BC9E467047F8B500BF9A
:103B4000F8BC08BC9E46704755370020E5040020AD
:103B5000C104002000000000000000000000000080
:103B60000000000000E1F50500E1F50500E1F505C4
:103B700040787D0100E1F50500E1F50500E1F5057E
:103B80000090002009070008AD060008B3060008F1
:103B90000000000000000000000000000000000025
:103BA0000000000000000000B9060008000000004E
:103BB00000000000C3060008CD06000859070008F1
:103BC0005907000859070008590700085907000855
:103BD0005907000859070008DB06000859070008C4
:103BE0005907000859070008590700085907000835
:103BF0005907000859070008590700085907000825
:103C00005907000859070008590700085907000814
:103C10005907000859070008590700085907000804
:103C200059070008590700085907000810B5064C45
:103C30002378002B07D1054B002B02D0044800E06D
:103C400000BF0123237010BD1800002000000000F9
:103C500044180008044B10B5002B03D00349044856
:103C600000E000BF10BDC046000000001C000020A6
:103C700044180008002243088B4274D303098B4286
:103C80005FD3030A8B4244D3030B8B4228D3030C2C
:103C90008B420DD3FF22090212BA030C8B4202D3CE
:103CA0001212090265D0030B8B4219D300E0090AF6
:103CB000C30B8B4201D3CB03C01A5241830B8B42FF
:103CC00001D38B03C01A5241430B8B4201D34B03E8
:103CD000C01A5241030B8B4201D30B03C01A52414D
:103CE000C30A8B4201D3CB02C01A5241830A8B42D2
:103CF00001D38B02C01A5241430A8B4201D34B02BB
:103D0000C01A5241030A8B4201D30B02C01A52411E
:103D1000C3098B4201D3CB01C01A524183098B42A4
:103D200001D38B01C01A524143098B4201D34B018D
:103D3000C01A524103098B4201D30B01C01A5241F0
:103D4000C3088B4201D3CB00C01A524183088B4277
:103D500001D38B00C01A524143088B4201D34B0060
:103D6000C01A524103088B4201D30B00C01A5241C2
:103D7000002243088B4274D303098B425FD3030AAA
:103D80008B4244D3030B8B4228D3030C8B420DD3BD
:103D9000FF22090212BA030C8B4202D3121209024B
:103DA00065D0030B8B4219D300E0090AC30B8B4289
:103DB00001D3CB03C01A5241830B8B4201D38B0337
:103DC000C01A5241430B8B4201D34B03C01A5241DC
:103DD000030B8B4201D30B03C01A5241C30A8B421F
:103DE00001D3CB02C01A5241830A8B4201D38B020A
:103DF000C01A5241430A8B4201D34B02C01A5241AE
:103E0000030A8B4201D30B02C01A5241C3098B42F1
:103E100001D3CB01C01A524183098B4201D38B01DC
:103E2000C01A524143098B4201D34B01C01A52417F
:103E300003098B4201D30B01C01A5241C3088B42C4
:103E400001D3CB00C01A524183088B4201D38B00AF
:103E5000C01A524143088B4201D34B00C01A524151
:103E600003088B4201D30B00C01A524100224308C1
:103E70008B4274D303098B425FD3030A8B4244D332
:103E8000030B8B4228D3030C8B420DD3FF22090274
:103E900012BA030C8B4202D31212090265D0030B33
:103EA0008B4219D300E0090AC30B8B4201D3CB0329
:103EB000C01A5241830B8B4201D38B03C01A52416B
:103EC000430B8B4201D34B03C01A5241030B8B426D
:103ED00001D30B03C01A5241C30A8B4201D3CB0258
:103EE000C01A5241830A8B4201D38B02C01A52413D
:103EF000430A8B4201D34B02C01A5241030A8B4240
:103F000001D30B02C01A5241C3098B4201D3CB012A
:103F1000C01A524183098B4201D38B01C01A52410E
:103F200043098B4201D34B01C01A524103098B4212
:103F300001D30B01C01A5241C3088B4201D3CB00FD
:103F4000C01A524183088B4201D38B00C01A5241E0
:103F500043088B4201D34B00C01A524103088B42E5
:103F600001D30B00C01A5241002243088B4274D384
:103F700003098B425FD3030A8B4244D3030B8B426A
:103F800028D3030C8B420DD3FF22090212BA030C73
:103F90008B4202D31212090265D0030B8B4219D354
:103FA00000E0090AC30B8B4201D3CB03C01A524174
:103FB000830B8B4201D38B03C01A5241430B8B42BC
:103FC00001D34B03C01A5241030B8B4201D30B03A5
:103FD000C01A5241C30A8B4201D3CB02C01A5241CC
:103FE000830A8B4201D38B02C01A5241430A8B428F
:103FF00001D34B02C01A5241030A8B4201D30B0278
:10400000C01A5241C3098B4201D3CB01C01A52419D
:1040100083098B4201D38B01C01A524143098B4261
:1040200001D34B01C01A524103098B4201D30B014A
:10403000C01A5241C3088B4201D3CB00C01A52416F
:1040400083088B4201D38B00C01A524143088B4234
:1040500001D34B00C01A524103088B4201D30B001D
:10406000C01A5241002243088B4274D303098B4289
:104070005FD3030A8B4244D3030B8B4228D3030C38
:104080008B420DD3FF22090212BA030C8B4202D3DA
:104090001212090265D0030B8B4219D300E0090A02
:1040A000C30B8B4201D3CB03C01A5241830B8B420B
:1040B00001D38B03C01A5241430B8B4201D34B03F4
:1040C000C01A5241030B8B4201D30B03C01A524159
:1040D000C30A8B4201D3CB02C01A5241830A8B42DE
:1040E00001D38B02C01A5241430A8B4201D34B02C7
:1040F000C01A5241030A8B4201D30B02C01A52412B
:10410000C3098B4201D3CB01C01A524183098B42B0
:1041100001D38B01C01A524143098B4201D34B0199
:10412000C01A524103098B4201D30B01C01A5241FC
:10413000C3088B4201D3CB00C01A524183088B4283
:1041400001D38B00C01A524143088B4201D34B006C
:10415000C01A524103088B4201D30B00C01A5241CE
:10416000002243088B4274D303098B425FD3030AB6
:104170008B4244D3030B8B4228D3030C8B420DD3C9
:10418000FF22090212BA030C8B4202D31212090257
:1041900065D0030B8B4219D300E0090AC30B8B4295
:1041A00001D3CB03C01A5241830B8B4201D38B0343
:1041B000C01A5241430B8B4201D34B03C01A5241E8
:1041C000030B8B4201D30B03C01A5241C30A8B422B
:1041D00001D3CB02C01A5241830A8B4201D38B0216
:1041E000C01A5241430A8B4201D34B02C01A5241BA
:1041F000030A8B4201D30B02C01A5241C3098B42FE
:1042000001D3CB01C01A524183098B4201D38B01E8
:10421000C01A524143098B4201D34B01C01A52418B
:1042200003098B4201D30B01C01A5241C3088B42D0
:1042300001D3CB00C01A524183088B4201D38B00BB
:10424000C01A524143088B4201D34B00C01A52415D
:1042500003088B4201D30B00C01A524100224308CD
:104260008B4274D303098B425FD3030A8B4244D33E
:10427000030B8B4228D3030C8B420DD3FF22090280
:1042800012BA030C8B4202D31212090265D0030B3F
:104290008B4219D300E0090AC30B8B4201D3CB0335
:1042A000C01A5241830B8B4201D38B03C01A524177
:1042B000430B8B4201D34B03C01A5241030B8B4279
:1042C00001D30B03C01A5241C30A8B4201D3CB0264
:1042D000C01A5241830A8B4201D38B02C01A524149
:1042E000430A8B4201D34B02C01A5241030A8B424C
:1042F00001D30B02C01A5241C3098B4201D3CB0137
:10430000C01A524183098B4201D38B01C01A52411A
:1043100043098B4201D34B01C01A524103098B421E
:1043200001D30B01C01A5241C3088B4201D3CB0009
:10433000C01A524183088B4201D38B00C01A5241EC
:1043400043088B4201D34B00C01A524103088B42F1
:1043500001D30B00C01A5241000000000000000011
:10436000000000000000000000000000000000004D
:10437000000000000000000000000000000000003D
:10438000000000000000000000000000000000002D
:10439000000000000000000000000000000000001D
:10544000000000002C57002094570020FC5700203B
:10545000000000000000000000000000000000004C
:10546000000000000000000000000000000000003C
:1054700000000000283B00200000000000000000A9
:10548000000000000000000000000000000000001C
:10549000000000000000000000000000000000000C
:1054A00000000000000000000000000000000000FC
:1054B00000000000000000000000000000000000EC
:1054C00000000000000000000000000000000000DC
:1054D00000000000000000000000000000000000CC
:1054E00000000000000000000100000000000000BB
:1054F0000E33CDAB34126DE6ECDE05000B00000080
:10550000000000000000000000000000000000009B
:10551000000000000000000000000000000000008B
:10552000000000000000000000000000000000007B
:10553000000000000000000000000000000000006B
:105860000000000000000000405400200000000084
:10587000000000006C5800206C5800207458002074
:10588000745800207C5800207C5800208458002048
:10589000845800208C5800208C58002094580020F8
:1058A000945800209C5800209C580020A4580020A8
:1058B000A4580020AC580020AC580020B458002058
:1058C000B4580020BC580020BC580020C458002008
:1058D000C4580020CC580020CC580020D4580020B8
:1058E000D4580020DC580020DC580020E458002068
:1058F000E4580020EC580020EC580020F458002018
:10590000F4580020FC580020FC58002004590020C6
:10591000045900200C5900200C5900201459002073
:10592000145900201C5900201C5900202459002023
:10593000245900202C5900202C59002034590020D3
:10594000345900203C5900203C5900204459002083
:10595000445900204C5900204C5900205459002033
:10596000545900205C5900205C59002064590020E3
:10597000645900206C5900206C5900207459002093
:10598000745900207C5900207C5900208459002043
:10599000845900208C5900208C59002094590020F3
:1059A000945900209C5900209C590020A4590020A3
:1059B000A4590020AC590020AC590020B459002053
:1059C000B4590020BC590020BC590020C459002003
:1059D000C4590020CC590020CC590020D4590020B3
:1059E000D4590020DC590020DC590020E459002063
:1059F000E4590020EC590020EC590020F459002013
:105A0000F4590020FC590020FC590020045A0020C1
:105A1000045A00200C5A00200C5A0020145A00206E
:105A2000145A00201C5A00201C5A0020245A00201E
:105A3000245A00202C5A00202C5A0020345A0020CE
:105A4000345A00203C5A00203C5A0020445A00207E
:105A5000445A00204C5A00204C5A0020545A00202E
:105A6000545A00205C5A00205C5A0020645A0020DE
:105A7000645A00206C5A00206C5A0020745A00208E
:105A8000745A00207C5A00207C5A0020845A00203E
:105A9000845A00208C5A00208C5A0020945A0020EE
:105AA000945A00209C5A00209C5A0020A45A00209E
:105AB000A45A0020AC5A0020AC5A0020B45A00204E
:105AC000B45A0020BC5A0020BC5A0020C45A0020FE
:105AD000C45A0020CC5A0020CC5A0020D45A0020AE
:105AE000D45A0020DC5A0020DC5A0020E45A00205E
:105AF000E45A0020EC5A0020EC5A0020F45A00200E
:105B0000F45A0020FC5A0020FC5A0020045B0020BC
:105B1000045B00200C5B00200C5B0020145B002069
:105B2000145B00201C5B00201C5B0020245B002019
:105B3000245B00202C5B00202C5B0020345B0020C9
:105B4000345B00203C5B00203C5B0020445B002079
:105B5000445B00204C5B00204C5B0020545B002029
:105B6000545B00205C5B00205C5B0020645B0020D9
:105B7000645B00206C5B00206C5B0020745B002089
:105B8000745B00207C5B00207C5B0020845B002039
:105B9000845B00208C5B00208C5B0020945B0020E9
:105BA000945B00209C5B00209C5B0020A45B002099
:105BB000A45B0020AC5B0020AC5B0020B45B002049
:105BC000B45B0020BC5B0020BC5B0020C45B0020F9
:105BD000C45B0020CC5B0020CC5B0020D45B0020A9
:105BE000D45B0020DC5B0020DC5B0020E45B002059
:105BF000E45B0020EC5B0020EC5B0020F45B002009
:105C0000F45B0020FC5B0020FC5B0020045C0020B7
:105C1000045C00200C5C00200C5C0020145C002064
:105C2000145C00201C5C00201C5C0020245C002014
:105C3000245C00202C5C00202C5C0020345C0020C4
:105C4000345C00203C5C00203C5C0020445C002074
:105C5000445C00204C5C00204C5C0020545C002024
:105C6000545C00205C5C00205C5C0020645C0020D4
:105C7000645C002000000200FFFFFFFF0000000046
:040000052000019145
:00000001FF
