:020000042000DA
:1000000000000120910100207F03002081030020D7
:1000100083030020850300208703002000000000E8
:100020000000000000000000000000008903002024
:100030008B030020000000008D0300208F030020B0
:1000400091030020930300209503002097030020D4
:10005000990300209B0300209D0300209F030020A4
:10006000A1030020A3030020A5030020A703002074
:10007000A9030020AB030020AD030020AF03002044
:10008000B1030020B3030020B5030020B703002014
:10009000B9030020BB030020BD030020BF030020E4
:1000A000C1030020C3030020C5030020C7030020B4
:1000B000C9030020CB030020CD030020CF03002084
:1000C000D1030020D3030020D5030020D703002054
:1000D000D9030020DB030020DD030020DF03002024
:1000E000E1030020E3030020E5030020E7030020F4
:1000F000E9030020EB030020ED030020EF030020C4
:10010000F1030020F3030020F5030020F703002093
:10011000F9030020FB030020FD030020FF03002063
:10012000010400200304002005040020070400202F
:10013000090400200B0400200D0400200F040020FF
:1001400011040020130400201504002017040020CF
:10015000190400201B0400201D0400201F0400209F
:10016000210400202304002025040020270400206F
:10017000290400202B0400202D0400202F0400203F
:1001800031040020330400200000000000000000C3
:100190004FF0000BDFF8BE020068DFF8B612096806
:1001A00001F0030100F01C00142801D14BF0020BF8
:1001B000002901D04BF0010BBBF1000F05D0A7487F
:1001C000A749DFF8722200F09FF8A64880470BF09D
:1001D000020ABAF1000F0CD0DFF86E02DFF86E12DF
:1001E00002680B680FB44FF000024FF0FF0302608B
:1001F0000B609D489D4A9E4B022808D1DFF83E12B5
:100200000A60DFF842120A60DFF836120B6001283C
:1002100008D1DFF82E120A60DFF82A120A60DFF830
:100220001E120B609348002809D193489349944AC1
:1002300000F032F893489449944A00F02DF894481D
:100240009449954A00F028F894489549DFF8E6214A
:1002500000F05AF8BBF1000F12D092489249DFF833
:10026000DA2100F051F80BF0020ABAF1000F07D0C2
:100270000FBC02600B6000BFAFF30080AFF30080E3
:10028000DFF828020FF2030E00474FF000004FF096
:100290000001DFF81CF2FEE72DE9F841884225D085
:1002A000B2EB010200D5FEE740EA010313F00303BD
:1002B00002D000F01DF819E04FF000039046121133
:1002C000F7D09A421CBFF0C8F0C103F10103F8D186
:1002D00008F00F08B8F1000F08D004780C7000F196
:1002E000010001F10101B8F10108F6D1BDE8F88182
:1002F00008B54FF0000303780B7000F1010001F125
:100300000101013AF7D108BD884237D000F0030659
:10031000002E14D04FF00405A5EB06044FF008079B
:1003200007FB06F8914669FA08F9002C07D080F817
:10033000009069FA07F900F10100013CF5E74FF080
:1003400000060F46091A88460911914614461546BB
:10035000B14206D018BFA0E8340206F10106B1424E
:10036000F8D108F00F08B8F1000F07D002704FEA7B
:10037000322200F10100B8F10108F4E77047FEE70E
:10038000FEE7FEE7FEE7FEE7FEE7FEE7FEE7FEE745
:10039000FEE7FEE7FEE7FEE7FEE7FEE7FEE7FEE735
:1003A000FEE7FEE7FEE7FEE7FEE7FEE7FEE7FEE725
:1003B000FEE7FEE7FEE7FEE7FEE7FEE7FEE7FEE715
:1003C000FEE7FEE7FEE7FEE7FEE7FEE7FEE7FEE705
:1003D000FEE7FEE7FEE7FEE7FEE7FEE7FEE7FEE7F5
:1003E000FEE7FEE7FEE7FEE7FEE7FEE7FEE7FEE7E5
:1003F000FEE7FEE7FEE7FEE7FEE7FEE7FEE7FEE7D5
:10040000FEE7FEE7FEE7FEE7FEE7FEE7FEE7FEE7C4
:10041000FEE7FEE7FEE7FEE7FEE7FEE7FEE7FEE7B4
:10042000FEE7FEE7FEE7FEE7FEE7FEE7FEE7FEE7A4
:10043000FEE7FEE7704700000000A2A2A2A2008033
:100440000340088003401080034030800340348024
:1004500003403880034018080240000000F00020EC
:100460000000012035060020000000000000000010
:10047000010000000000000000000020000000203B
:1004800090010020C0040020C0040020100A0020B9
:10049000100A0020100A0020400E0020400E00200C
:1004A000600E0020600E002000F00020FD070020FC
:1004B0008D07002000000000000000000000000088
:1004C00010B5054C237833B9044B13B10448AFF38E
:1004D00000800123237010BD400E002000000000AA
:1004E000E4090020084B10B51BB108480849AFF3D8
:1004F00000800848036803B910BD074B002BFBD0F0
:10050000BDE81040184700BF00000000E4090020CB
:10051000440E0020100A00200000000080B483B0C8
:1005200000AF0346FB71094997F907305B09FA7977
:1005300002F01F02012000FA02F2203341F82320CA
:100540000C37BD465DF8047B704700BF00E100E05A
:1005500080B483B000AF0346FB71094997F90730B7
:100560005B09FA7902F01F02012000FA02F26033FF
:1005700041F823200C37BD465DF8047B704700BF6F
:1005800000E100E080B582B000AF1A4A194B9B6CC5
:1005900043F480139364174A164B9B6C43F0F0733B
:1005A000936400237B6012E0134A7B6813441B783A
:1005B0005BB21846FFF7B2FF0F4A7B6813441B7803
:1005C0005BB21846FFF7C4FF7B6801337B607B6832
:1005D0001F2BE9D9074A074B9B6C23F0F0739364F8
:1005E000044A044B9B6C23F4801393640837BD4684
:1005F00080BD00BF00800340BC09002080B485B0EE
:1006000000AF03463960FB71FB79FB60FB681F2B71
:1006100000D900BEFB681F2B05D8054AFB6852F8BD
:1006200023303A681A601437BD465DF8047B704782
:100630003C09002080B500AF00F05AF800F030F817
:10064000044A044B5B6943F400735361FFF7F2FE05
:1006500080BD00BF00ED00E080B483B000AF0E4B62
:10066000D3F84C313B603B684FF60202934203D013
:100670000A4A934203D005E001237B6005E0022390
:100680007B6002E000237B6000BF7B6818460C376C
:10069000BD465DF8047B70470080034002F801000E
:1006A00080B582B000AFFFF7D7FF78607B68012B81
:1006B00000D002E000F004F800BF0837BD4680BD5E
:1006C00080B400AF094A094BD3F8983043F48073E3
:1006D000C2F89830054A054BD3F8983023F0806370
:1006E000C2F89830BD465DF8047B70470080034037
:1006F00080B483B000AF164BD3F8503103F0010340
:100700007B607B68002BF6D0114A114BD3F89430F4
:1007100023F00103C2F894300D4BD3F8503103F0AD
:1007200002037B607B68002BF6D0094A084BD3F8A4
:10073000983023F48053C2F89830054A044B9B6CE0
:1007400023F4803393640C37BD465DF8047B704717
:100750000080034080B483B000AF7860044A7B68B7
:10076000C2F888300C37BD465DF8047B704700BF87
:100770000030014080B400AF034BD3F888301846F6
:10078000BD465DF8047B70470030014080B582B003
:1007900000AFFFF7F7FE00200521FFF72FFF012034
:1007A0000521FFF72BFF02200521FFF727FF03207C
:1007B0000521FFF723FF00F00BF8FFF7DBFF786060
:1007C0007B68DB437B607868FFF7C4FFF3E700BF1B
:1007D00080B483B000AF084B1B68DB097B6002E08C
:1007E0007B68013B7B607B68002BF9D10C37BD46F1
:1007F0005DF8047B704700BF140A002070B50F4EEF
:100800000F4D761BB61018BF002405D0013455F8E3
:10081000043B9847A642F9D10A4E0B4D00F0E2F88E
:10082000761BB61018BF002406D0013455F8043BDF
:100830009847A642F9D170BD70BD00BFFC090020E9
:10084000FC090020040A0020FC090020024B13B11F
:10085000024800F005B87047000000006D08002055
:10086000014600200246034600F016B838B5084B92
:10087000084DED1AAC1018BFED1805D0013C55F825
:10088000043D9847002CF9D1BDE8384000F0B0B8DD
:10089000040A0020080A00202DE9F047254C0646EE
:1008A00025688846D5F8484192469946C4B36068A1
:1008B0001F2817DC411C76B104EB8003C3F888A025
:1008C000D4F88851012282401543022EC4F8885181
:1008D000C3F808911ED0831C6160002044F8238077
:1008E000BDE8F087144B03B34FF4C870AFF300803A
:1008F0000446D0B1D5F84831002784E8880038464E
:10090000C5F848410121C4F88871C4F88C71002EE3
:10091000E1D0D1E7D4F88C311A43C4F88C21DAE75E
:1009200005F5A674C5F84841C1E74FF0FF30BDE8B2
:10093000F08700BFE0090020000000000030014007
:1009400004300140083001400C30014010300140BB
:1009500014300140183001401C300140203001406B
:1009600024300140283001402C300140303001401B
:1009700034300140383001403C30014040300140CB
:1009800044300140483001404C300140503001407B
:1009900054300140583001405C300140603001402B
:1009A00064300140683001406C30014070300140DB
:1009B00074300140783001407C30014032333435AE
:1009C000363738393A3B3C3D3E3F4041424344454F
:1009D000464748494A4B4C4D4E4F5051430000004A
:1009E000180A0020F8B500BFF8BC08BC9E46704746
:1009F000F8B500BFF8BC08BC9E4670474D08002003
:100A0000E5040020C10400200000000000000000F8
:100A10000000000080F5E40900000000040D002043
:100A20006C0D0020D40D002000000000000000002C
:100A300000000000000000000000000000000000B6
:100A4000000000000000000000000000DC090020A1
:100A50000000000000000000000000000000000096
:100A60000000000000000000000000000000000086
:100A70000000000000000000000000000000000076
:100A80000000000000000000000000000000000066
:100A90000000000000000000000000000000000056
:100AA0000000000000000000000000000000000046
:100AB0000000000000000000000000000000000036
:100AC00001000000000000000E33CDAB34126DE6D3
:100AD000ECDE05000B00000000000000000000003C
:100AE0000000000000000000000000000000000006
:100AF00000000000000000000000000000000000F6
:100B000000000000000000000000000000000000E5
:100B100000000000000000000000000000000000D5
:040000052000019145
:00000001FF
