:020000042000DA
:1000000000000120910100207F03002081030020D7
:1000100083030020850300208703002000000000E8
:100020000000000000000000000000008903002024
:100030008B030020000000008D0300208F030020B0
:1000400091030020930300209503002097030020D4
:10005000990300209B0300209D0300209F030020A4
:10006000A1030020A30300205505002075050020F2
:10007000A9030020AB030020AD030020AF03002044
:10008000B1030020B3030020B50300208507002042
:10009000B9030020BB030020BD030020BF030020E4
:1000A000C1030020C3030020C5030020E50D00208C
:1000B000D90E0020CB030020CD030020CF03002069
:1000C000D1030020D3030020D5030020D703002054
:1000D000D9030020DB030020DD030020DF03002024
:1000E000E1030020E3030020E5030020E7030020F4
:1000F000E9030020EB030020ED030020EF030020C4
:10010000F1030020F3030020F5030020F703002093
:10011000F9030020FB030020FD030020FF03002063
:10012000010400200304002005040020070400202F
:10013000090400200B0400200D0400200F040020FF
:1001400011040020130400201504002017040020CF
:10015000190400201B0400201D0400201F0400209F
:10016000210400202304002025040020270400206F
:10017000290400202B0400202D0400202F0400203F
:1001800031040020330400200000000000000000C3
:100190004FF0000BDFF8BE020068DFF8B612096806
:1001A00001F0030100F01C00142801D14BF0020BF8
:1001B000002901D04BF0010BBBF1000F05D0A7487F
:1001C000A749DFF8722200F09FF8A64880470BF09D
:1001D000020ABAF1000F0CD0DFF86E02DFF86E12DF
:1001E00002680B680FB44FF000024FF0FF0302608B
:1001F0000B609D489D4A9E4B022808D1DFF83E12B5
:100200000A60DFF842120A60DFF836120B6001283C
:1002100008D1DFF82E120A60DFF82A120A60DFF830
:100220001E120B609348002809D193489349944AC1
:1002300000F032F893489449944A00F02DF894481D
:100240009449954A00F028F894489549DFF8E6214A
:1002500000F05AF8BBF1000F12D092489249DFF833
:10026000DA2100F051F80BF0020ABAF1000F07D0C2
:100270000FBC02600B6000BFAFF30080AFF30080E3
:10028000DFF828020FF2030E00474FF000004FF096
:100290000001DFF81CF2FEE72DE9F841884225D085
:1002A000B2EB010200D5FEE740EA010313F00303BD
:1002B00002D000F01DF819E04FF000039046121133
:1002C000F7D09A421CBFF0C8F0C103F10103F8D186
:1002D00008F00F08B8F1000F08D004780C7000F196
:1002E000010001F10101B8F10108F6D1BDE8F88182
:1002F00008B54FF0000303780B7000F1010001F125
:100300000101013AF7D108BD884237D000F0030659
:10031000002E14D04FF00405A5EB06044FF008079B
:1003200007FB06F8914669FA08F9002C07D080F817
:10033000009069FA07F900F10100013CF5E74FF080
:1003400000060F46091A88460911914614461546BB
:10035000B14206D018BFA0E8340206F10106B1424E
:10036000F8D108F00F08B8F1000F07D002704FEA7B
:10037000322200F10100B8F10108F4E77047FEE70E
:10038000FEE7FEE7FEE7FEE7FEE7FEE7FEE7FEE745
:10039000FEE7FEE7FEE7FEE7FEE7FEE7FEE7FEE735
:1003A000FEE7FEE7FEE7FEE7FEE7FEE7FEE7FEE725
:1003B000FEE7FEE7FEE7FEE7FEE7FEE7FEE7FEE715
:1003C000FEE7FEE7FEE7FEE7FEE7FEE7FEE7FEE705
:1003D000FEE7FEE7FEE7FEE7FEE7FEE7FEE7FEE7F5
:1003E000FEE7FEE7FEE7FEE7FEE7FEE7FEE7FEE7E5
:1003F000FEE7FEE7FEE7FEE7FEE7FEE7FEE7FEE7D5
:10040000FEE7FEE7FEE7FEE7FEE7FEE7FEE7FEE7C4
:10041000FEE7FEE7FEE7FEE7FEE7FEE7FEE7FEE7B4
:10042000FEE7FEE7FEE7FEE7FEE7FEE7FEE7FEE7A4
:10043000FEE7FEE7704700000000A2A2A2A2008033
:100440000340088003401080034030800340348024
:1004500003403880034018080240000000F00020EC
:1004600000000120F110002000000000000000004A
:10047000010000000000000000000020000000203B
:1004800090010020C0040020C0040020601400205F
:1004900060140020601400209018002090180020A4
:1004A000801900208019002000F000205112002047
:1004B000E11100200000000000000000000000002A
:1004C00010B5054C237833B9044B13B10448AFF38E
:1004D00000800123237010BD901800200000000050
:1004E00038140020084B10B51BB108480849AFF379
:1004F00000800848036803B910BD074B002BFBD0F0
:10050000BDE81040184700BF00000000381400206C
:1005100094180020601400200000000080B483B014
:1005200000AF78600B46FB707B6803F070427B681D
:10053000C3F313035B011344FA789200134403F1ED
:1005400000731B68DBB218460C37BD465DF8047BB0
:10055000704700BF684620F007018D4689B500AF9F
:10056000034800F017F8BD46BDE88940854670474E
:1005700038190020684620F007018D4689B500AF84
:10058000034800F007F8BD46BDE88940854670473E
:10059000F818002080B584B000AF78607B68774A97
:1005A000934204D07B68764A934200D000BE7B68B9
:1005B000724A934204D07B68714A934240F0DB80D8
:1005C0007B681B681B7ADBB203F00F03FB73FB7BBA
:1005D0000C2B00F2CE8001A252F823F0110600206D
:1005E000730700202F060020890600204D060020FA
:1005F000730700206B06002073070020730700209C
:100600007307002073070020730700204D060020A9
:100610007B689B6A002B00D100BE7B689B6A002B25
:1006200004D07B689B6A78689847A4E0A3E07B6865
:100630005B6A002B00D100BE7B685B6A002B04D094
:100640007B685B6A7868984795E094E07B681B6AF2
:10065000002B00D100BE7B681B6A002B04D07B6896
:100660001B6A7868984786E085E07B68DB69002B29
:1006700000D100BE7B68DB69002B04D07B68DB699E
:100680007868984777E076E07B681B6828331846DF
:100690000021FFF743FF0346002B0CD07B68DB6A89
:1006A000002B00D100BE7B68DB6A002B03D07B6887
:1006B000DB6A786898477B681B68283318460121F5
:1006C000FFF72CFF0346002B0CD07B681B6B002B25
:1006D00000D100BE7B681B6B002B03D07B681B6BBB
:1006E000786898477B681B68283318460221FFF713
:1006F00015FF0346002B0CD07B685B6B002B00D1F1
:1007000000BE7B685B6B002B03D07B685B6B7868FB
:1007100098477B681B68283318460321FFF7FEFEC5
:100720000346002B0CD07B689B6B002B00D100BED6
:100730007B689B6B002B03D07B689B6B786898472A
:100740007B681B68283318460421FFF7E7FE034641
:10075000002B0DD07B68DB6B002B00D100BE7B68CB
:10076000DB6B002B04D07B68DB6B7868984702E07A
:1007700001E000BE00BF1037BD4680BD3819002023
:10078000F818002080B582B000AF0F4B5B68FB719A
:100790000D4B9B68DAB2FB791340FB71FB7903F0D8
:1007A0000203BB71BB79002B01D000F0E7F8FB79A5
:1007B00003F001037B717B79002B01D000F006F878
:1007C0000837BD4680BD00BF0060014080B584B0E1
:1007D00000AF634B1B78022B3FD0052B6BD0012B56
:1007E00040F0AD805F4B1B889BB2002B30D05E4B3E
:1007F0001A685C4B1B889BB21046194600F006FA3B
:10080000F860584B1B889BB21A46FB689A420FD976
:10081000544B1B889AB2FB689BB2D31A9AB2514BC5
:100820001A80514B1A68FB6813444F4A13600EE05C
:100830004C4B00221A804D4B1B68002B03D0484BB9
:1008400002221A7003E0464B03221A7004E003E010
:1008500000BE00F0B5F97FE07EE0444B1B68002B42
:1008600024D0434B1A68414B1B681046194600F0D0
:10087000CDF9B8603D4B1B68BA689A420CD23B4B2D
:100880001A68BB68D31A394A1360394B1A68BB68B7
:100890001344374A13600DE0364A364B9B6823F009
:1008A000010393602E4B03221A7003E000BE00F098
:1008B00087F951E050E02D4B1B68002B1BD12E4BCC
:1008C0001B68002B14D02C4B1B6829489847024604
:1008D000264B1A60254B1B68002B0CD1254A254B53
:1008E0009B6823F0010393601D4B03221A7002E002
:1008F00000BE00F065F91D4B1B68002B09D11D4A95
:100900001C4B9B6823F001039360154B03221A7064
:1009100022E0174B1A68154B1B681046194600F069
:1009200075F97860114B1A687B68D31A0F4A136007
:100930000F4B1A687B6813440D4A13600CE00D4A94
:100940000C4B9B6823F001039360002000F018F922
:10095000034B00221A7000BF1037BD4680BD00BF98
:10096000D1180020B4180020B0180020BC180020B6
:10097000B818002000600140CC18002080B584B079
:1009800000AF794B1B69FB81FB8923F4FF4323F004
:100990007F03BB81FB89FB72744B1B78052B00F234
:1009A000D88001A252F823F0C10900203D0B00209D
:1009B0003D0B0020190A0020670A0020110B0020BF
:1009C000BB89002B27D0FB7AF12B06D0FB7ABB72B8
:1009D000BB7A184600F04CF91DE0654B00221A80E6
:1009E000644B1B68624A128892B21344FA7A1A70F6
:1009F0005F4B1B889BB201339AB25D4B1A805D4BF3
:100A00001B685B4A128892B2134400221A70574B3B
:100A100004221A70A4E0A3E0BB89002B22D0FB7A49
:100A20007B72554B1B78DBB27A7A9A4215D1504BC8
:100A300000221A804F4B1B684D4A128892B2134411
:100A40007A7A1A704A4B1B889BB201339AB2484B90
:100A50001A80464B04221A7004E07B7A184600F094
:100A600007F97DE07CE0BB89002B06D0FB7A3B7266
:100A70003B7A184600F0FCF849E03E4B1A683C4BC4
:100A80001B889BB2013B13441B78F12B16D1394BC9
:100A90001B68374A128892B21344FA7A1A70354B9F
:100AA0001A68334B1B889BB2013B13441B781846D2
:100AB00000F0DEF82D4B00221A7028E02C4B1B882A
:100AC0009AB22E4B1B889A4210D2FB7AFB71294BAB
:100AD0001B68274A128892B21344FA791A70244B81
:100AE0001B889BB201339AB2214B1A80204B1B8882
:100AF0009AB2224B1B889A4209D11D4B1B889BB28C
:100B0000184600F03DF8194B00221A7028E027E043
:100B1000BB89002B0BD1174B1B680133FA7A1A7073
:100B2000022000F02DF8114B00221A7018E0FB7A19
:100B3000BB71BB79184600F09BF811E0BB89002B14
:100B400006D0FB7A7B717B79184600F091F807E0BC
:100B500006E0002000F014F8044B00221A7000BFD9
:100B60001037BD4680BD00BF00600140D118002095
:100B7000C6180020C0180020AC180020C41800209F
:100B800080B582B000AF0346FB800A4B1B68002B88
:100B90000DD0084B1B68084A1168FA8808461146B0
:100BA0009847044B00221A60044B00221A70083741
:100BB000BD4680BDC8180020C0180020D0180020F5
:100BC00080B582B000AF0E4B1B78DBB2002B13D088
:100BD0000C4B1B889BB21846FFF7D2FF0A4A0A4B00
:100BE0001B6843F001031360074B1B6803F001030C
:100BF0007B607B68002BF7D10837BD4680BD00BF06
:100C0000D0180020C61800200060014080B485B0D4
:100C100000AF78603960154A144B1B6823F0040359
:100C200013600023FB60114B5B6803F00103BB60A2
:100C30000DE00E497A68FB6813441B780B61FB6872
:100C40000133FB60094B5B6803F00103BB60BB68C9
:100C5000002B03D0FA683B689A42EAD3FB68184637
:100C60001437BD465DF8047B704700BF006001404B
:100C700080B582B000AF0346FB71064B1B68002BAA
:100C800004D0044B1B68FA79104698470837BD46D4
:100C900080BD00BFD418002090B484B000AFF860CD
:100CA000B9607A60FB704B484B4B1A68F978134671
:100CB0009B001344DB01034403F5E073596047498B
:100CC000454B1A6813469B0013449B000B44FA687B
:100CD0005A604249404B1A6813469B0013449B00DC
:100CE0000B44BA689A603D483B4B19683B4C3A4B01
:100CF0001A6813469B0013449B00234408335B6827
:100D00001A0C12040B469B000B449B00034408334F
:100D10005A607B68B3F5803F0FD97B68A3F58033B9
:100D20002F4A1361BB6803F580332D4AD360FB68FB
:100D300003F580332A4A936019E02848264B1A6845
:100D4000264C254B19680B469B000B449B00234403
:100D500008335B68796889B2194313469B001344D2
:100D60009B000344083359601D4B00221A611B4845
:100D7000194B1A68194C184B19680B469B000B4409
:100D80009B00234408335B6843F4E00113469B0057
:100D900013449B000344083359600E490E4B1A68F4
:100DA00013469B001344DB010B4403F5E07301225F
:100DB0001A600849084B1A6813469B001344DB016C
:100DC0000B4403F5E47300225A601037BD4690BC13
:100DD000704700BF00002842F0180020004001408A
:100DE000D8180020684620F007018D4691B500AF65
:100DF000344A354B1B6803F52873012142F8231050
:100E00003248314B1A68314C2F4B19680B469B0006
:100E10000B449B00234408335B6823F4E001134632
:100E20009B0013449B00034408335960264B1B6806
:100E30000133254A1360244B1B68042B02D1224B3B
:100E400000221A60224B1B69002B17D0214B1B6814
:100E5000042B03D11F4B00221A6004E01D4B1B68BA
:100E600001331C4A13601A4B9868194BD968184B08
:100E70001A69174B1B7DFFF70FFF1EE01349124B3A
:100E80001A6813469B0013449B000B4408335B68AD
:100E900003F4E003002B10D10B4B00221A600D4B22
:100EA00000221A600A4B01221A70094B5B68002B62
:100EB00003D0074B5B6801209847BD46BDE89140D1
:100EC0008546704700002842F41800200040014089
:100ED000D8180020F0180020684620F007018D4641
:100EE00081B583B000AF384B1B683B603B6803F4AF
:100EF00070633B603B68002B2FD03449344B1A6839
:100F000013469B001344DB010B4403F502731B687B
:100F1000002B0AD02F4B02221A702E4B5B68002B3D
:100F200003D02C4B5B68022098472849284B1A684D
:100F300013469B001344DB010B4403F502735B680B
:100F4000002B0AD0234B03221A70224B5B68002B24
:100F500003D0204B5B68032098471B4B1B683B600A
:100F60003B6803F470433B603B68002B0AD0194B8D
:100F700004221A70174B5B68002B03D0154B5B687B
:100F80000420984700237B6014E010497A681346D8
:100F90009B001344DB010B4403F5E47301221A6048
:100FA0000A4A7B6803F52873012142F823107B6805
:100FB00001337B607B68032BE7D90C37BD46BDE866
:100FC00081408546704700BF004001400000284234
:100FD000F4180020D818002080B483B000AF034676
:100FE000FB71094997F907305B09FA7902F01F0292
:100FF000012000FA02F2203341F823200C37BD46CD
:101000005DF8047B704700BF00E100E080B483B06E
:1010100000AF0346FB71094997F907305B09FA797C
:1010200002F01F02012000FA02F2603341F823208F
:101030000C37BD465DF8047B704700BF00E100E05F
:1010400080B582B000AF1A4A194B9B6C43F48013F1
:101050009364174A164B9B6C43F0F0739364002320
:101060007B6012E0134A7B6813441B785BB218461E
:10107000FFF7B2FF0F4A7B6813441B785BB2184638
:10108000FFF7C4FF7B6801337B607B681F2BE9D9C6
:10109000074A074B9B6C23F0F0739364044A044B9C
:1010A0009B6C23F4801393640837BD4680BD00BF5A
:1010B000008003401014002080B485B000AF0346C8
:1010C0003960FB71FB79FB60FB681F2B00D900BE08
:1010D000FB681F2B05D8054AFB6852F823303A6895
:1010E0001A601437BD465DF8047B704790130020EA
:1010F00080B500AF00F030F8044A044B5B6943F45C
:1011000000735361FFF796F980BD00BF00ED00E06A
:1011100080B483B000AF0E4BD3F84C313B603B68DA
:101120004FF60202934203D00A4A934203D005E0ED
:1011300001237B6005E002237B6002E000237B60EB
:1011400000BF7B6818460C37BD465DF8047B7047CE
:101150000080034002F8010080B582B000AFFFF7C5
:10116000D7FF78607B68012B00D002E000F004F824
:1011700000BF0837BD4680BD80B400AF094A094BA7
:10118000D3F8983043F48073C2F89830054A054B81
:10119000D3F8983023F08063C2F89830BD465DF8EC
:1011A000047B70470080034080B483B000AF786058
:1011B000044A7B68C2F888300C37BD465DF8047B72
:1011C000704700BF0030014080B400AF034BD3F83C
:1011D00088301846BD465DF8047B704700300140FA
:1011E00080B582B000AFFFF72BFF1E200521FFF76F
:1011F00063FF01200521FFF75FFF02200521FFF7B4
:101200005BFF03200521FFF757FF00F00BF8FFF706
:10121000DBFF78607B68DB437B607868FFF7C4FFA7
:10122000F3E700BF80B483B000AF084B1B68DB0955
:101230007B6002E07B68013B7B607B68002BF9D11F
:101240000C37BD465DF8047B704700BF6414002076
:1012500070B50F4E0F4D761BB61018BF002405D089
:10126000013455F8043B9847A642F9D10A4E0B4D7C
:1012700000F0E2F8761BB61018BF002406D0013447
:1012800055F8043B9847A642F9D170BD70BD00BF28
:101290005014002050140020581400205014002036
:1012A000024B13B1024800F005B87047000000007F
:1012B000C1120020014600200246034600F016B885
:1012C00038B5084B084DED1AAC1018BFED1805D015
:1012D000013C55F8043D9847002CF9D1BDE8384051
:1012E00000F0B0B8581400205C1400202DE9F0473D
:1012F000254C064625688846D5F8484192469946C9
:10130000C4B360681F2817DC411C76B104EB80036E
:10131000C3F888A0D4F88851012282401543022ED8
:10132000C4F88851C3F808911ED0831C6160002066
:1013300044F82380BDE8F087144B03B34FF4C87022
:10134000AFF300800446D0B1D5F84831002784E8D7
:1013500088003846C5F848410121C4F88871C4F8AE
:101360008C71002EE1D0D1E7D4F88C311A43C4F847
:101370008C21DAE705F5A674C5F84841C1E74FF0BE
:10138000FF30BDE8F08700BF3414002000000000EB
:101390000030014004300140083001400C30014071
:1013A0001030014014300140183001401C30014021
:1013B0002030014024300140283001402C300140D1
:1013C0003030014034300140383001403C30014081
:1013D0004030014044300140483001404C30014031
:1013E0005030014054300140583001405C300140E1
:1013F0006030014064300140683001406C30014091
:101400007030014074300140783001407C30014040
:1014100032333435363738393A3B3C3D3E3F404134
:1014200042434445464748494A4B4C4D4E4F505124
:101430004300000068140020F8B500BFF8BC08BCE9
:101440009E467047F8B500BFF8BC08BC9E46704782
:10145000A1120020E5040020C104002000000000CB
:101460000000000000E1F505000000005417002016
:10147000BC1700202418002000000000000000001D
:10148000000000000000000000000000000000005C
:1014900000000000000000000000000030140020E8
:1014A000000000000000000000000000000000003C
:1014B000000000000000000000000000000000002C
:1014C000000000000000000000000000000000001C
:1014D000000000000000000000000000000000000C
:1014E00000000000000000000000000000000000FC
:1014F00000000000000000000000000000000000EC
:1015000000000000000000000000000000000000DB
:1015100001000000000000000E33CDAB34126DE678
:10152000ECDE05000B0000000000000000000000E1
:1015300000000000000000000000000000000000AB
:10154000000000000000000000000000000000009B
:10155000000000000000000000000000000000008B
:10156000000000000000000000000000000000007B
:040000052000019145
:00000001FF
